:020000040000FA
:10000000021F3F022003FFFFFFFFFF02200BFFFF45
:10001000FFFFFF022013FFFFFFFFFF02201BFFFF78
:10002000FFFFFF022023FFFFFFFFFF02202BFFFF48
:10003000FFFFFF022033FFFFFFFFFF02203BFFFF18
:10004000FFFFFF022043FFFFFFFFFF02204BFFFFE8
:10005000FFFFFF022053FFFFFFFFFF02205BFFFFB8
:10006000FFFFFF022063FFFFFFFFFF02206BFFFF88
:10007000FFFFFF022073FFFFFFFFFF02207BFFFF58
:10008000FFFFFF022083FFFFFFFFFF02208BFFFF28
:10009000FFFF70DFFFFF040000000002000000C847
:1000A000030002030369A5020269A532730000017F
:1000B00000000000000400FFFFFFFFFFFFFFFF0440
:1000C00003090424035400650078006100730020D4
:1000D0000049006E0073007400720075006D0065C9
:1000E000006E007400730024035400490020004394
:1000F000004300320035003300310020005500532A
:10010000004200200043004400430000035F005F02
:100110000030005800000000000000000000000057
:1001200000000000000000000000000000000000CF
:100130000000000000303132333435363738394171
:100140004243444546331C881C881C881C881C90EC
:100150001C74F8121BCD900391E06015900302749B
:10016000FEF0900304744DF0A37405F07A011207B9
:100170001C7F01021D6C74F8121BCD74FF121EB699
:100180007E00801F851882851983E064FE700690CA
:1001900003877401F0851882851983E0F890038441
:1001A000E068F07901AA18AB191210E9E9700302AE
:1001B0000287851882851983E064EF70027E07E06C
:1001C000C0E0900387E0FA900385E0F8EA28F8E4BD
:1001D0003400F9740228F582740339F583D0E0F015
:1001E000900387E0609E14600E14602B14603B1433
:1001F0006051146067809E900384E4F085188285C6
:100200001983E0900386F0C394809003874003E451
:1002100080827402020194851882851983E090031C
:1002200082F09003877403020194851882851983F4
:10023000E0900383F0900386E060199003877404D4
:10024000020194900385E004F0F8900386E0686072
:10025000030201959003877405020194900385E4DD
:10026000F0900387F0900384E0F885188285198365
:10027000E0686003020195900382E0644D60030230
:1002800001951203BF8002EEF97401121E370201BC
:100290007174F7121BCD74FB121EB6EAFEEBFF75EC
:1002A00008047509007808121ED07402121F377AEC
:1002B000907B0079041218EB7402121E3712070E9D
:1002C000121F88E0687003A3E069701285188285A8
:1002D0001983E0F47003A3E0F4600302039A74044A
:1002E000121F2F1207708A088B09A808A909740227
:1002F000121F88E8F0A3E9F07404121F88E0600878
:1003000079011201510203B3851882851983E068CF
:100310007003A3E0697076851882851983E0F47014
:1003200003A3E0F470197402121F887410F0A37410
:1003300020F08518828519837410F0A37420F0755D
:1003400008017509007808121ED07402121F377A4E
:10035000247B0812196F7402121E3775080478087E
:10036000121ED07402121F377A907B007904121883
:10037000EB7402121E3712070E121F88E06870031A
:10038000A3E069700479028006790480027903127F
:1003900001518E828F83741E80058E828F83E4F0DC
:1003A00012070E121F88E0687003A3E069700479D9
:1003B00001800279007405121E377F02021D6C74E1
:1003C000ED121BCD74F8121EB6900307E0FD9003EA
:1003D00006E0FCFAEDF8E4C8F9EA28FEE93408FF83
:1003E000751001750B00750A068E088F0974027866
:1003F00008121F1CC39508F8E49509F9740228F542
:100400000E740339F50F8E088F0974097808121FCE
:100410004EE508F511EE2410F508E43FF509EEF578
:100420000CEF5401F50D900383E014605914700330
:100430000204FB14700302057614601024FE70039E
:100440000206311470030206E10206F1750A03790F
:100450004E1213BD9003071207047402F0A37440F8
:100460001207027408120702F0A3F07418C394076D
:1004700004F510AA10A90B12071CA90A7408121E71
:10048000377F0C021D6C750A04794E1213BDEE45C0
:100490000D7005A9111219D5C3EE9425EF940850DB
:1004A0003CC3E5089424E50994084031E50E249600
:1004B000F8E50F3420F988828983E0701BA3AA82B3
:1004C000AB83E070139003887401F0888289837491
:1004D000A5F08A828B838004900388E4F07508106D
:1004E0007509007808121ED07C087D03EEFAEFFB38
:1004F00012196F7402121E37020473750A05E51192
:10050000C394794006750B0102047375124075138C
:10051000007812121ED07C097D037402780C121F21
:100520001CAA0CAB0DA9111218EB7402121E379005
:100530000307E0A3F0900306E0A3F0751043C3EEB9
:100540009425EF94084003020473C3E5089424E55E
:100550000994085003020473900388E070030204B6
:1005600073E50E2497F8E50F3420F988828983E437
:10057000F0A3F00204737508047509007808121ED0
:10058000D07402121F377A907B0079041218EB7432
:1005900002121E377402121F88E0F8A3E0F98518D2
:1005A00082851983E0687003A3E069851882851944
:1005B00083700BE0F47003A3E0F470578009E0F45B
:1005C0007003A3E0F4700D8518828519837410F010
:1005D000A37420F012070E121F88E8F0A3E9F0754B
:1005E00008017808121ED07402121F377A247B0883
:1005F00012196F7402121E377508047808121ED083
:100600007402121F377A907B0079041218EB74027F
:10061000121E3712070E121F88E0687003A3E069EC
:100620007006750A01020473750A02750B0702044D
:10063000739003D6E0600764026003020473EDFF69
:100640007A01790012071CE060030206D5800312CC
:10065000118512116CE970F77404121F881206F6E6
:100660007404121F887808121F6C85080C85090D08
:10067000850A0E850B0F9003C2780C121EF67404C7
:10068000121F88780C121F5DE5084509450A450BC5
:1006900070CE8EC2E5C554E04FF5C57404121F88B4
:1006A0001206F67404121F887808121F6C85080C55
:1006B00085090D850A0E850B0F9003C2780C121E5A
:1006C000F67404121F88780C121F5DE50845094571
:1006D0000A450B70CE7A01790012071C79080204D2
:1006E0007CEC900391F07003020473750A09020414
:1006F00073790602047CE4F0A37426F0A3E4F0A36B
:10070000F022F0A3E4F0A3F0A3F0A3F0A322851855
:1007100082851983E0F8A3E0F974022274F8121BB1
:10072000CDEAFE900305E0D2E7F0E9A3F0EE9003F6
:1007300003F08E0874042AFE7C028004E062080C38
:10074000ECFA3395E0FB74022AF58274033BF583DF
:10075000EEF8C3EA98EB9400A2D265D03340DDE511
:1007600008F074012AF97A027B0312112702017141
:1007700074E9121BCD7582007583FE121E198A164C
:100780008B177514007515008A828B83E4F0900333
:10079000D6E07006D2AAD2AF800464027005790058
:1007A000120151750C00750D20750E00750F00902B
:1007B00003D6E0600464027015121185120176E917
:1007C000F874096860030208AC7900120151E06412
:1007D000027007A29240030208877508007509029B
:1007E0007808121ED07402121F37850C08850D0977
:1007F000AA08E5095407FB850E0A850F0B740B78D0
:1008000008121E87A9081218EB7402121E377E0008
:100810007F009003CAC0828E10EFF5113395E0F58A
:1008200012F513850C08850D09850E0A850F0B78C6
:10083000087910121F099003C67808121EF67583F6
:1008400003D0827808121DFA501D851882851983FD
:10085000E5822EF582E5833FF583E0F9AA14AB1516
:100860001208DB8A148B150EEE70010FC3EF940291
:1008700040A09003CE780C121EF69003D2780C1292
:100880001DFA40030207AF7900AA14AB151208DB6A
:1008900079001208DB8B159003D6E07004C2AFC25A
:1008A000AAEA451570277AA57BA58021E870030286
:1008B00007CE74066870030207CE740768700302DF
:1008C00007CE8516828517837401F080BA75820081
:1008D000758302121E197F10021D6CC008C0097CAE
:1008E000088A088B09740F7808121F4EE508F8EA89
:1008F00025E0FAEB33FBE9A2E7500474014AFAE879
:10090000A2E0500874216AFA74106BFBE9C333F952
:100910001CEC70CDD009D00822C082C083120F33E6
:1009200060030209F0A3E0F8A3E060030209F0A36A
:10093000E064027002A3E060030209F09003B8E0F3
:100940002480600914604F14605C0209F0E86003C1
:100950000209F09003B2E060047801800278009010
:1009600003C0E8F0A3E4F09003B1E0600A9003C094
:10097000E04402F0A3E4F09003A6E0640460149065
:1009800003B374C0F0A37403F0A3E4F0A3740212E1
:100990000F95F0020E6E90039FE064047052900376
:1009A000C0E4F0A380D0E8547FFA90039FE0640491
:1009B000703EEAC394065038749F2AF582E43403EB
:1009C000F583E854806018A3A3A3A3A3A3A3E064C2
:1009D0000370047801800278009003C0E88094E5F9
:1009E00082240CF58250020583E0640370E980E301
:1009F0009003A67404809B74F8121BCDE9FE90034B
:100A0000BE120F366003020AD990039FE0640460AF
:100A10000B9003BC120F366003020AD99003B8E0B2
:100A2000541F6009146030146020020AD99003BA80
:100A3000E064017022EE9003B1F060047905800259
:100A400079067A00121BCB020ADF9003BCE0547FC8
:100A5000FA9003BAE060057900020AE1EAC394065D
:100A60005077EA90620EF0749F2AF8E43403F9900C
:100A700003BCE05480602EEE600474108002744069
:100A8000906211F0EE60047B0380027B00EB8882B1
:100A90008983A3A3A3A3A3A3A3F0EE600479088092
:100AA0002F7907802BEE60047B2080027B80EB9007
:100AB0006214F0EE60047B0380027B00E8240CF5F6
:100AC00082E439F583EBF0EE6004790A800279095B
:100AD000121BCB90620EE480059003A67404F0799B
:100AE000017F01021D6C79001209F7E97003121BE6
:100AF000BA2279011209F7E97003121BC922C082D8
:100B0000C0839003BC120F367015A3120F36700FFE
:100B10009003BA120CD95480FAE9FBEA4B600790B3
:100B200003A67404801AE8906200F090039F6009A5
:100B3000E06402700C74038007E0640370037402C5
:100B4000F0020E6E74F5121BCD9003BAE0FAA3E02A
:100B50001460081460101460398057121754120C76
:100B6000B6A37B8080417900121776120CB67B8089
:100B7000E92402F9E43AFA121E6DFC1919E0FAA30D
:100B8000E92403F9E43AFA121E6DF9ECA3F0A3E9A3
:100B9000801CEAF91217E49003B3EAF0A3EBF0A388
:100BA000E4120CC5A37B00121E6DA3F0A3E4F002B7
:100BB0000C709003B3E4F0A3F0A3F0750B00900465
:100BC0007DE0FAA3E0FB020C4E850B08750900746A
:100BD000037808121F1CEA2508F8EB3509F9900381
:100BE000BA120CCFE493C0E0EFFCD0E06C705DA3D0
:100BF000E4936E70579003BC120CCFA3A3E493C090
:100C0000E0EFFCD0E06C704488828983A3A3A3E466
:100C1000936E703888828983A3A3A3A3E493F50815
:100C2000740193F5099003B3E508F0A3E509F0A377
:100C30007480F088828983A3A3A3A3A3A3E493F879
:100C4000740193F99003B6E8F0A3E9F0050B900462
:100C50007F120CD9C39AF508E99BF509740378084B
:100C6000121F4EC3E50B9508E495095003020BC90A
:100C70009003B3E0FCA3E0FDA3E0FEEC4D4E900337
:100C8000A6700474048029E0640460259003BEE02B
:100C9000FAA3E0FB9003B6E0F8A3E0F9C3EA98EB0F
:100CA0009950089003B6EAF0A3EBF09003A6740104
:100CB000F07F04021D6C9003B3EAF0A3EBF0A37481
:100CC00080120CC522F09003B3E0F9A3E0FA22E011
:100CD000FEA3E0FF8882898322E0F8A3E0F9E822FE
:100CE00074EE121BCDEA2404F8E43BF98808890964
:100CF0008882F583E4936025900481120CD9FEE983
:100D0000FF8007EE2404FE50010F8E828F83E49350
:100D1000F8740193F9EA687002EB6970E6750B00EC
:100D2000803F9062147490F07410120E3570037549
:100D30000A408E828F83A3A3A3E493550E6006E539
:100D40000AD2E0F50AE50A906215F0EA906213F023
:100D5000EC240CF582E43DF583E4F090620EF0059E
:100D60000B850882850983E493F8E50BC39840035B
:100D7000020E307A0079051216E78A0C8B0DEA45CF
:100D80000D60DCEA2402F8E4350DF9881089118839
:100D900082F583E493540FF51290620EF0750A0009
:100DA0008A828B83A3A3A3A3E4932407F50EA3E471
:100DB000933400F50F7403780E121F4EAA0EA8127A
:100DC000749F28F8E43403F9E8FCE9FD750E017519
:100DD0000F00E512780E121F1CE50EF50EE50C242F
:100DE00003F8E4350DF9851082851183E493A2E7B9
:100DF0004003020D229062117448F07408120E35FF
:100E00007003750A408E828F83A3A3E493550E600E
:100E100006E50AD2E0F50AE50A906212F0EA90626D
:100E200010F08C828D83A3A3A3A3A3A3A3020D59C7
:100E30007F0B021D6CF088828983E4935403640164
:100E400022C082C083120F337010A3120F36700AB3
:100E5000A3E064017002A3E060079003A67404801D
:100E60000C9003B374A0F0A37403120F8BF0D08323
:100E7000D0822274F3121BCD90039FE064026014B1
:100E80009003BC120F36700CA3120F36700690033D
:100E9000BBE060099003A67404F0020F2E7A00797B
:100EA00001121BCB9003BAE0606F7A00F91217763B
:100EB0008A0A8B0BEA450B605890039F7404F090EC
:100EC00003BAE09003A0F0750800850A82850B83C1
:100ED000A3A3A3A3E493F8E508C398504AA8087411
:100EE000A128F8E43403F9E8FEE9FF8E828F83E459
:100EF000F07A0079041216E78A828B83A3A3A3E415
:100F000093F88E828F83E06870E7120CE00508800A
:100F1000B99003A67404F0800E9003A0F090039F94
:100F20007403F0F91216677A007902121BCB7F0660
:100F3000021D6C9003BAE0F8A3E0F9E8492274F6C8
:100F4000121BCD90039FE0640470199003B8E06415
:100F5000817011120F33700C9003BEE064017002B7
:100F6000A3E060079003A67404801A9003BCE024F9
:100F7000A1F508A3E03403F5099003B3E508F0A355
:100F8000E509120F8BF07F03021D6CF0A3E4F0A3C0
:100F900004120F9522F0A3E4F09003A6042274F744
:100FA000121BCD90039FE0640470649003B8E0646A
:100FB00001705C9003BE120F3670549003BAE0FBD0
:100FC0009003BCE0FA9003A0E0F91217AE8A088BF8
:100FD00009AE08AF09EE4F60369003BCE0FA790322
:100FE000121BCB9003BAE0C0E09003BCE024A1F850
:100FF000A3E03403F988828983D0E0F0EEFAEFFBB6
:10100000120CE09003BCE0FA7904121BCB8006902E
:1010100003A67404F07F02021D6CC082C0838003AB
:10102000121A31A2E840F9A823E854046009782391
:10103000E654FBF612140EA823E854106009782336
:10104000E654EFF612142FA823E8A2E05005782307
:1010500054FCF690620EE0FA7404F0906214E0A280
:10106000E05039A9A8C2AF906216E0F8A3E0E8FB0F
:10107000E9A2E792AF8017906228E0C0E090039366
:10108000E0F812111CD0E0F0900393E004F0EBFDC7
:1010900074FF2DFB0470E0906214E4F0EA90620E9D
:1010A000F0E0FC7404F0906211E0A2E040319003A3
:1010B00095E0F8900394E06860257A4090039412DC
:1010C000115FE0906228F0900394E004F008900330
:1010D00095E06860041AEA70E39062117401F0EC24
:1010E00090620EF0D083D0822274F8121BCDE9FEFC
:1010F0007900801212111CE08A828B83F090039297
:10110000E00412115409900392E0F8900393E06810
:101110006005E9C39E40DD7F01021D6C748528F5E2
:1011200082E43404F58322C082C083E9FC80188AFB
:10113000828B83E0C0E090039512115FD0E0121122
:1011400054900395E004F0ECF874FF28FC0470DF81
:1011500079018090F08A828B83A3AA82AB8322E0FC
:10116000F8748528F582E43405F58322C082C083B3
:10117000900395E0F8900394E068600479018002A0
:1011800079000210E402101A74FB121EB67E009061
:1011900006857808121F6C794A1213BD9006857473
:1011A00001F0A3F0A37469F0A374A5F09003D778BD
:1011B00008121EE170047E0180159003DB7808128E
:1011C0001EE16008E59D541864107003022000EED3
:1011D000F9121334C280D291EEA2E050030212E75A
:1011E000AA18AB19120291E970030212E7C29185A5
:1011F0001882851983E0C3943C500EE0F8743CC318
:1012000098F50895E0F5098006750800750900E471
:10121000F50AF50B9003DF780C121F6C7808790C37
:10122000121AD1790612015112101A120176E9F838
:101230007409687007790612015180277407686085
:1012400016A2935012E8600874066860030212E761
:10125000A292400F0212E7750800750900750A0096
:10126000750B0085080C85090D850A0E850B0F90FE
:1012700003C27808121EF6E50C450D450E450F70A9
:10128000A7D2807907120151800312101A12116C33
:10129000E970F77E007F007401121F88E4F0A374E8
:1012A00026F0A3E4F0A3F07401121F887808121F3F
:1012B0006C85080C85090D850A0E850B0F9003C2FD
:1012C000780C121EF67401121F88780C121F5DE54F
:1012D000084509450A450B70CEA29250FCA29350D6
:1012E000F81213B8022000D280D291794E1213BDA9
:1012F000750800750900750A00750B007905120163
:101300005112101A120176E9F874096860EE74013E
:101310006870EE12101A9003E37808121EF690031C
:10132000E77808121DFA50EB1213B802200074057A
:10133000121E372274F8121BCDE9FE53BEFBE59D49
:10134000A2E650FA0078F8790100E824FF18E934A1
:10135000FFF9E84970F375C6807480659E70FA43A2
:10136000BE049062707408F01213ADEE700853F46E
:10137000FEC29043FE017403F5D575D4899003969F
:10138000E4F0A374C2F0A37401F0A3E4F0A3F0A30B
:10139000F0A37408F01213D37AFF7BFF1219EC53F9
:1013A000F4FED29043FE011213AD021117D2804316
:1013B000FD01C29143FE0222D280C29122781075B3
:1013C000B60FE5B4A2E750FAE5BBC39940F118E8BF
:1013D00070ED2274F7121BCD7A0079011217768A0C
:1013E000828B83A3A3A3A3A3A3A3E493A2E6900366
:1013F000B2500474018001E4F09003B1E4F0906213
:101400000F7403F0E0A2E750FB7F02021D6CC08264
:10141000C08390039F7402F0A3E4F09003A6F079D8
:1014200003121667752100752200D083D0822274C2
:10143000F6121BCD90620EE0FEE4F0906211E0FF28
:10144000A2E4501D7480F09003A67407F0E52145D6
:10145000226009852182852283121F979003A6E4CA
:10146000F0EFA2E2500B906211E4F09003A6F0803E
:10147000679003A6E0F87402687046906216E0FF79
:101480009003B3121DACEFF97A207B6212168174BF
:1014900003121E37EFF89003B612164512164F2F9F
:1014A000121657A3E0F8A3E0F9E8496004744080FD
:1014B000027448906211F0E849600302163B02167C
:1014C000177406687009852182852283121F979000
:1014D00003A6E060030215C2EFA2E0400302163B40
:1014E0007508B8750903750A007808121ECC7908CA
:1014F0007A207B621216817403121E3775210075E3
:1015000022009003B8E054E0601D24E0700302154F
:101510009D24E0607224C0604824E070030215A896
:1015200024E0606E0215B3A3E014602624FE601D63
:1015300024FE600A24FC601F24FE60208075120ACD
:10154000FE9003A6E06404707278608070120AF264
:1015500080EF120AE680EA120E7380E5120F9E8079
:10156000E0A3E0600E24FA600F24FE601024FE6009
:1015700011804012091980C9120B4480C4120E4117
:1015800080BF120F3E80BA7521B675221B121BB6A2
:1015900080AF7521B875221B121BB880A47521512C
:1015A00075221B121B51809975218175221B121BFC
:1015B00081808E9003A67404F0808E7840E890625B
:1015C00011F09003A6E0F874016870617F02900347
:1015D000B6E0F8A3E0F9C3E89420E994005007E8E6
:1015E000F5087F0A80037508209003B3121DACA98B
:1015F000087A207B621216AC7403121E37AC0812F4
:10160000164F2C121657A808A3121645EF90621118
:10161000F0E8C394205024E5214522600985218209
:10162000852283121F979003A6E4F0800E7405684C
:101630007009852182852283121F97EE90620EF039
:101640007F03021D6CC3E098F0A3E09400F02290A9
:1016500003B31216D9E922F9E43AFA9003B3E9F098
:10166000A3EAF0A3EBF022C082C083E99003A7783D
:1016700005F0A3D8FC9003AC7805F0A3D8FC0214C5
:101680002A74F8121BCDEAFCEBFDE9F87408121F6E
:10169000881216D460118C828D83E0121EA0E9247A
:1016A0000109E43AFAD8EF7F01021D6C74F8121BAD
:1016B000CDEAFCEBFDE9F87408121F881216D4601D
:1016C00011121E6D8C828D83F0E9240109E43AFA2F
:1016D000D8EF80D31216D9E822E0F9A3E0FAA3E00C
:1016E000FB22D083D08222C082C083E9FCEAFD7A4B
:1016F000007B00800312173290039DE0F8A3E0F90D
:1017000090047BE0687003A3E069602490039EE08E
:10171000F5838882A3E493F8EC68700D90039DE054
:10172000FAA3E0FB1217328007ED6870C8ED60C5C0
:1017300080B090039DE0F8A3E0F5838882E493F8FD
:1017400090039DE028F8A3E03400F990039DE8F0B1
:10175000A3E9F022C082C0831217657A00790112D2
:1017600016E70216E2900479E0F8A3E0F990039DF1
:10177000E8F0A3E9F02274F7121BCDE9FFEAFE12AC
:1017800017657A0079021216E7EA4B601CEF6010C9
:101790008A828B83A3A3A3A3A3E4936F70E480093D
:1017A000EEF874FF28FE0470D97F02021D6C74F5F8
:1017B000121BCDEAFF8B087A001217767A027904A1
:1017C0001216E7EA4B60188A828B83A3A3E4936F17
:1017D00070EA8A828B83A3A3A3E493650870DD7FFC
:1017E00004021D6C74F7121BCD74F0121EB6E97A58
:1017F000007B00600C146010146014146018021850
:10180000D47AF37B030218D47AF77B030218D47AD4
:101810001B7B040218D490043FE060030218D090B0
:1018200003EB7408121F377408121DD9750808F5E8
:10183000097808121ED07402121F377AE87B0779E4
:101840007F1218EB7402121E377808121ED0740A29
:10185000121F377402121F2F121C907402121E37AF
:101860008B09EA450970197509007808121ED07CA9
:101870000C7D787402121F2F121D267402121E375F
:101880007C287D00EDF8851882851983E58228F58E
:1018900082E43583F583E0FFECF8743F28F8E43404
:1018A00004F9EF1218DC88828983F0EFC41218DC87
:1018B000C0E0E824FEF582E934FFF583D0E0F00DC6
:1018C00074FC2CFCEDC3940840BA90043F742AF0D9
:1018D0007A3F7B047410121E370217A9540FFA7452
:1018E000692AF582E43404F583E02274F6121BCDF4
:1018F000890A740F550AF508750900740B780812E7
:101900001F1CEA2400F8EB3480F9E82400E93509CB
:10191000F985C709A2AFE433F508C2AFE50AC4549C
:101920000FFAE5C754F84AF5C7740A121F88E0FA9F
:10193000A3E0FB801C88828983E08C828D83F08801
:10194000828983A3A882A9838C828D83A3AC82AD74
:1019500083EAFEEBFFEE24FF1AEF34FFFBEE4F703D
:10196000D48509C7E508A2E092AF7F03021D6C741D
:10197000F7121BCDED900389F0ECA3F0A37462F095
:10198000A37473F0A3E0541FF07409121F88E0F5EC
:1019900008A3E0F509E508333354FC90038EF07496
:1019A000067808121F4EE50890038DF090038F749F
:1019B00012F0A37442F075D1FE75D601EA906271FF
:1019C000F0EBA3F0906270E0D2E1F0E0A2E740FB20
:1019D0007F02021D6CC082C083E9C333906272F043
:1019E000906270E0D2E0F0D083D0822274F7121BB4
:1019F000CD7523007524007525008A268B27EA9073
:101A0000620BF08A088B0974047808121F4EE508EF
:101A1000906207F08A088B0974097808121F4EE556
:101A200008543E906209F0758B00C2E87F02021DE7
:101A30006C74F7121BCDE59DA2E650FA906206E0A9
:101A4000F9A2E25034AA26EA90620BF0F508852745
:101A50000974047808121F4EE508906207F08A089E
:101A600085270974097808121F4EE508543E9062D4
:101A700009F0906201E0D2E0F0E9782346F6906246
:101A800002E0F50875090074047808121F1C782319
:101A9000E50846F608E50946F6906204E0F50875A3
:101AA000090074097808121F1C7824E50946F6E934
:101AB000A2E050037525017406596003752500E501
:101AC0008BA2E55006758BDF752500121BCC021A20
:101AD00027080808EAC0E0EBC0E086F0E7A4FA189F
:101AE0000986F0E7A42AFA180986F0E7A42AFA186A
:101AF0000986F0E7A42AFA1986F0E7A4FBE5F02AA4
:101B0000FA190886F0E7A42BFBE5F03AFA190886E3
:101B1000F0E7A42BFBE5F03AFA18180986F0E7A4E1
:101B2000C5F02BFBE43AFA1908E7C5F0C6A426F67F
:101B3000E5F03BFBE43AFA1886F0E7A4F6E5F00896
:101B400026F6E43B08F6E43A08F6D0E0FBD0E0FAEB
:101B500022C082C0839003B9E0F8742268700890B4
:101B600003A6E0701A80117420689003A6700DE03F
:101B7000700D121BA89003A6740280027404F080FA
:101B800043C082C0839003B9E064219003A6701320
:101B9000E07013121BA8A37407F0A3E4F09003A64F
:101BA0000480027404F0801C9003B37496F0A37454
:101BB00003F0A3E4F02280028000C082C08390037F
:101BC000A67404F0D083D0822280EF22222518C58B
:101BD00082C0E0E51934FFC583C0E0E518C39582F3
:101BE00024F910AF08858319858218800885831928
:101BF000858218D2AFCEF0A3E520F0A37808E608DE
:101C0000F0A3DEFAEFF0A3E58124FBF8E608F0A3E9
:101C1000E608F0A30808E608F0A3E608F0A315819B
:101C20001581D0E0FED0E0F815811581E8C0E0EE26
:101C3000C0E02212010002020000205104A816098F
:101C40000001020301090243000201008019090496
:101C50000000010202010005240010010424020218
:101C60000524060001052401000107058203400048
:101C70004009040100020A00000007058402400038
:101C800000070504024000004E1C0000711C00000B
:101C900074F8121BCD7408121F88E0FEA3E08015B3
:101CA000A3AA82AB838C828D83A3AC82AD83EE2406
:101CB000FF1EEF34FFFFEE4F60198C828D83E0F83A
:101CC0008A828B83E0F9E86960D6E9C398FA95E0E7
:101CD000FB80047A007B007F01021D6CE47921788F
:101CE00007B800028004F709D8FCE490030278C129
:101CF00079018002F0A3D8FCD9FA7AC27B03900064
:101D00008E78C479018015E493A3AD82AE838A8274
:101D10008B83F0A3AA82AB838D828E83D8E9D9E727
:101D2000121188121F9274F7121BCDEAF8EBF974A6
:101D300009121F88E0FEA3E0FF80188C828D83E0EB
:101D400088828983F0A3A882A9838C828D83A3AC27
:101D500082AD838E088F09E50824FF1EE50934FF54
:101D6000FFE508450970D47F02021D6C8519838543
:101D70001882E0A3FEE0A3F5207808E0A3F608DFD0
:101D8000FAE0A3FFE0A3C0E0E0A3C0E0E0A3C0E06E
:101D9000E0A3C0E010AF088582188583198008850C
:101DA0008218858319D2AFD083D082227403800039
:101DB000CCC0E0EDC0E0E518C39CCCAD1950011DCE
:101DC00010AF068C188D1980068C188D19D2AF12A1
:101DD0001DD9D0E0FDD0E0FC22CAC0E0E0A3C5825E
:101DE000CCC582C583CDC583F0A3C582CCC582C5D1
:101DF00083CDC583DAE6D0E0CA22C008C3E096F5F9
:101E00000808A3E096420808A3E096420808A3E069
:101E10009645087001D3D00822C5822518C582C511
:101E200083351910AF07F5198582188007F51985D4
:101E30008218D2AFC5832200C0D0251810AF08F594
:101E400018500C05198008F51850020519D2AFD0AA
:101E5000D0222518F58210AF08F518400C1519800E
:101E600008F51840021519D2AF85198322BB01026B
:101E7000E722C082C08389828A83BB0003E080029C
:101E8000E493D083D082226016080808C6C313C624
:101E900018C613C618C613C618C613C6D5E0EA225C
:101EA000BB000EC082C0838A838982F0D083D08237
:101EB00022BB0101F722251810AF08F518400C15B8
:101EC000198008F51840021519D2AF227403800456
:101ED00074028000C0E0F404121E52D0E0121F7B96
:101EE00022E066701008A3E066700A08A3E066703E
:101EF0000408A3E06622E026F608A3E036F608A36D
:101F0000E036F608A3E036F622E627F60809E637BB
:101F1000F60809E637F60809E637F622700422606B
:101F20000D18C6C333C608C633C6D5E0F41822253B
:101F300018FAE43519FB222518FCE43519FD227541
:101F4000D00075813F751802751903021CDC600C06
:101F500008C6C313C618C613C6D5E0F422E6F008B7
:101F6000A3E6F008A3E6F008A3E6F022E0F608A353
:101F7000E0F608A3E0F608A3E0F622CAC0E0E6F027
:101F8000A308DAFAD0E0FA222518F582E43519F52B
:101F9000832200000080FBE473FFFFFFFFFFFFFFD1
:101FA000FFFFFFFFFFFFFFFFFFFFFFFFFFFFFFFF41
:101FB000FFFFFFFFFFFFFFFFFFFFFFFFFFFFFFFF31
:101FC000FFFFFFFFFFFFFFFFFFFFFFFFFFFFFFFF21
:101FD000FFFFFFFFFFFFFFFFFFFFFFFFFFFFFFFF11
:101FE000FFFFFFFFFFFFFFFFFFFFFFFFFFFFFFFF01
:0A1FF600850609433886000000004C
:020000040003F7
:01FFF000F020
:020000040000FA
:10200000022D6302222FFFFFFFFFFFFFFFFFFFFFF5
:10201000FFFFFFFFFFFFFFFFFFFFFFFFFFFFFFFFD0
:10202000FFFFFFFFFFFFFFFFFFFFFF022B3DFFFF53
:10203000FFFFFF022251FFFFFFFFFFFFFFFFFFFF38
:10204000FFFFFFFFFFFFFFFFFFFFFFFFFFFFFFFFA0
:10205000FFFFFF02216FFFFFFFFFFFFFFFFFFFFFFB
:10206000FFFFFFFFFFFFFFFFFFFFFF022A06FFFF4B
:10207000FFFFFFFFFFFFFFFFFFFFFF02288DFFFFB6
:10208000FFFFFF0221C3FFFFFFFFFFFFFFFFFFFF77
:1020900010201020010020FD00020000643100002B
:1020A0000000FE30E8313431A63100002831000054
:1020B0000000000000000000000000000000000020
:1020C00000000000000006FFFFFF00035F005F004C
:1020D0003000580000000000000000000000000078
:1020E00000000000000000000000000000000000F0
:1020F00000000000AD2602270227022702270A2738
:1021000001010400CD18000000E8030000FFFF48B3
:102110001903E803000064006400B801A0BB0D00CF
:10212000A0BB0D0002020008000005020704010523
:102130001E02051402013C0A0A01080803B80B023A
:10214000803E0102FEFFE8030A050001FFFF0A14BA
:1021500001E0010105030101FF0F10FEFF034E0026
:10216000000000754C00000000FF000000FF00C0F0
:10217000E074F212264EA2AFE433F508D2AFAFA757
:10218000AEA1EE5F54106006122E9475A1EFEE5FC3
:1021900054086008122E9A75A1F78023EEA2E092EF
:1021A000F0EFA2E082F05017906198E0F890054BB4
:1021B000E0C398A2D265D0335002E8F075A1FEE5E5
:1021C000088063C0E074F212264EA2AFE433FED260
:1021D000AF9061A4E0F8759B00E591585408600841
:1021E0007591F7122EE28023E5915854106008751E
:1021F00091EF122EE88014E591A2E092F0E8A2E0BF
:1022000082F05007E0C2E0F01230329061A3E0F8B3
:10221000E5E9585404600E12300875E9FB906193AB
:10222000E0A2E640F2EEA2E092AF7F0102270AC0F0
:10223000E074F212264EA2AFE433FED2AF9061A555
:10224000E0F8E5BF585404600675BFFB12304A80C1
:10225000D4C0E074F112264EE59DA2E650FA9062D9
:1022600006E0F9A2E25034AA2CEA90620BF0F508DD
:10227000852D0974047808122D82E508906207F014
:102280008A08852D0974097808122D82E508543EC4
:10229000906209F0906201E0D2E0F0E9782946F618
:1022A000906202E0F50875090074047808122CB0F9
:1022B0007829E50846F608E50946F6906204E0F557
:1022C0000875090074097808122CB0782AE50946C7
:1022D000F6E9A2E05003752B017406596003752BD3
:1022E00000E58BA2E55006758BDF752B0012356675
:1022F000758B00C2E87F0202270AC3E498F8E499CC
:10230000F912233B8026C3E49AFAE49BFBE920E719
:10231000E912233BE498F8E499F922C3E498F8E43D
:1023200099F912233BE498F8E499F9C3E49AFAE4A2
:102330009BFB22EB20E7CFE920E7E0B90010BB00D0
:1023400008E88AF084F8AAF022E4FBC8FA22EB70CD
:10235000227B10C833C8C933C9335007C39AC3DBC3
:10236000F280069A50012ADBEAC833F4C8C933F474
:10237000C9FA2275F008E4C833C8C933C933C99A09
:10238000C99B5004C92AC93BD5F0ECFBC833F4C83B
:10239000E4C9FA2274F512258574FA122BBA75086D
:1023A000047509007808122B0F7404122B9A7AF81E
:1023B0007B0779031248EC7402122B2290811F785C
:1023C00008122D737402122DF47808122C11704823
:1023D0007508027509007808122B0F7402122B9AE7
:1023E0007AF67B0779031248EC7402122B228518C7
:1023F00082851983E0F47003A3E0F4601B851882E2
:10240000851983E0F8A3E08882F5837402F0A3F0D5
:10241000A37469F0A374A5F0C2AF75D69F02000043
:102420007406122B227F040228D0080808EAC0E0B4
:10243000EBC0E086F0E7A4FA180986F0E7A42AFAD0
:10244000180986F0E7A42AFA180986F0E7A42AFA00
:102450001986F0E7A4FBE5F02AFA190886F0E7A44C
:102460002BFBE5F03AFA190886F0E7A42BFBE5F020
:102470003AFA18180986F0E7A4C5F02BFBE43AFAFB
:102480001908E7C5F0C6A426F6E5F03BFBE43AFAE6
:102490001886F0E7A4F6E5F00826F6E43B08F6E433
:1024A0003A08F6D0E0FBD0E0FA22E4CFC0E0E4CE78
:1024B000C0E0E4CDC0E0E4CCC0E075F020E626F654
:1024C00008E633F608E633F608E633F6181818EC93
:1024D00033FCED33FDEE33FEEF33FFC3EC9709ED34
:1024E0009709EE9709EF97191919400FFFEC97FC20
:1024F00009ED97FD09EE97FE191906D5F0BFECF727
:1025000009EDF709EEF709EFF7191919D0E0FCD03A
:10251000E0FDD0E0FED0E0FF222518C582C0E0E556
:102520001934FFC583C0E0E518C3958224F810AFC5
:10253000088583198582188008858319858218D2B9
:10254000AFCEF0A3E520F0A37808E608F0A3DEFA0A
:10255000EFF0A3E58124FAF8E608F0A3E608F0A37B
:10256000E608F0A30808E608F0A3E608F0A3158142
:102570001581D0E0FED0E0F8158115811581E8C005
:10258000E0EEC0E0222518C582C0E0E51934FFC5A1
:1025900083C0E0E518C3958224F910AF088583193C
:1025A0008582188008858319858218D2AFCEF0A362
:1025B000E520F0A37808E608F0A3DEFAEFF0A3E543
:1025C0008124FBF8E608F0A3E608F0A30808E60873
:1025D000F0A3E608F0A315811581D0E0FED0E0F865
:1025E00015811581E8C0E0EEC0E022122DE9B900A6
:1025F00003022638E47921780DB800028004F70937
:10260000D8FCE49004D1785579188002F0A3D8FC66
:10261000D9FA7A257B1C90209478DC79018015E426
:1026200093A3AD82AE838A828B83F0A3AA82AB830D
:102630008D828E83D8E9D9E77582E07583AE740602
:10264000122ACE75827275834A7400122ACEC0D0C7
:102650002518C582C0E0E51934FFC583C0E0E51840
:10266000C3958224F310AF088583198582188008EA
:10267000858319858218D2AFC8F0A3E9F0A3EAF0E8
:10268000A3EBF0A37908E709F0A3D8FAECF0A3EDE7
:10269000F0A3EEF0A3EFF0A3D0E0F0A3D0E0F0A31E
:1026A000D0E0F0A3E520F0A3E5F0F0A322120100B2
:1026B00002020000205104A81609000102030109CA
:1026C0000243000201008019090400000102020116
:1026D000000524001001042402020524060001055F
:1026E00024010001070582034000400904010002A3
:1026F0000A000000070584024000000705040240AC
:102700000000C8260000EB2600008519838518828A
:10271000E0C0E0A3E0F9A3E0FAA3E0FBA37808E0BF
:10272000F608A3DFFAE0FCA3E0FDA3E0FEA3E0FFD0
:10273000A3E0C0E0A3E0C0E0A3E0F5D0A3E0F52073
:10274000A3E0A3F5F010AF088583198582188008EF
:10275000858319858218D2AFD082D083D0E0F8D09B
:10276000E032E47375F0108E218F228582268583F6
:1027700025851882851983E0CEA3E0CF8526828542
:102780002583EBC9EAC8EDCBECCAC3E833C8E9330B
:10279000C9EA33CAEB33CBC3EA9EF524EB9FF5239A
:1027A000B35004AB23AA24EC33CCED33CDD5F0DA0F
:1027B000AE21AF2222D083D082ECC0E0EDC0E0E4B5
:1027C00093A3FCE493A3FDED4C600D122910EC24BF
:1027D000FFFCED34FFFD80EFE493A3FCE493A3FD45
:1027E000ED4C600D1229B1EC24FFFCED34FFFD80AF
:1027F000EFD0E0FDD0E0FCE493A3C0E0E493C0E0C0
:1028000022851983851882E0A3FEE0A3F5207808CD
:10281000E0A3F608DFFAE0A3FFE0A3C0E0E0A3C076
:10282000E0E0A3C0E0E0A3C0E0E0A3C0E010AF0898
:102830008582188583198008858218858319D2AF0F
:10284000D083D082022AD4D083D082E9C0E0E4933E
:10285000A3C386F0C5F095F0F908E493A386F0C50C
:10286000F095F0700BE493A3C3994005E90480024E
:10287000A3E475F002A42582F582E5F03583F583A3
:10288000D0E0F9E493A3C0E0E493C0E022C0E07498
:10289000F212264EA2AFE433FED2AFE58AA2E25096
:1028A0000790050EE0D2E0F0E58AA2E3500790051C
:1028B0000EE0D2E1F0758A00C2EB7A107B00900541
:1028C0000AE0F9123314EEA2E092AF7F0102270A68
:1028D000851983851882E0A3FEE0A3F5207808E03F
:1028E000A3F608DFFAE0A3FFE0A3C0E0E0A3C0E0A6
:1028F000E0A3C0E0E0A3C0E010AF088582188583A4
:10290000198008858218858319D2AFD083D082229E
:10291000C0E0C3E49396087401939618400FE493C3
:1029200066700808740193661870007019A3A3C339
:10293000E49396087401939618A3A3400DD0E0D0B9
:10294000E0D0E00227F1A3A3A3A3A3A3D0E02274C5
:102950000480087403800474028000CCC0E0EDC0E1
:10296000E0E518C39CCCAD1950011D10AF068C18C2
:102970008D1980068C188D19D2AF122A50D0E0FD27
:10298000D0E0FC2274028000CCC0E0EDC0E0E5188D
:10299000C39CCCAD1950011D10AF068C188D198049
:1029A000068C188D19D2AF122A2ED0E0FDD0E0FC93
:1029B00022C0E0C0F088F0E49366700808740193C8
:1029C00066187000A8F0A3A3700BD0F0D0E0D0E0A0
:1029D000D0E00227F1A3A3D0F0D0E022D083D082B0
:1029E000CCC0E0E493A36006122A711470FAE49359
:1029F000A36006122BE61470FAD0E0FCE493A3C0A7
:102A0000E0E493C0E022C0E074F212264E75890023
:102A1000C2C59019F3E0700E7A007B109005E1E0DA
:102A2000F91233148003123BF67F0102270ACAC051
:102A3000E0E493A3C582CCC582C583CDC583F0A352
:102A4000C582CCC582C583CDC583DAE5D0E0CA2274
:102A5000CAC0E0E0A3C582CCC582C583CDC583F0E2
:102A6000A3C582CCC582C583CDC583DAE6D0E0CAD2
:102A700022C0E0E493A3D39C5010E493A3C39C40F2
:102A80000AD0E0D0E0D0E00229F9A3A3A3D0E0224D
:102A9000C008C3E096F50808A3E096420808A3E042
:102AA00096420808A3E09645087001D3D00822702A
:102AB00009080808226016181818C6C333C608C6C5
:102AC00033C608C633C608C633C6D5E0EA22C09F5F
:102AD000F59FE473D09F22D083D082C09FE493C03F
:102AE000E0740193C0E0740293F59F222518F582EB
:102AF00010AF08F518400C15198008F5184002159C
:102B000019D2AF851983227404800A740380067475
:102B10000280027401C0E0F404122AECD0E0122D0D
:102B2000A02200C0D0251810AF08F518500C0519C8
:102B30008008F51850020519D2AFD0D022C0E0C0ED
:102B4000D0E8C0E0A8A8D2AFC2C7E8A2E792AFD051
:102B5000E0F8D0D0D0E032BB0102E722C082C083CF
:102B600089828A83BB0003E08002E493D083D08211
:102B7000226016080808C6C313C618C613C618C6AE
:102B800013C618C613C6D5E0EA222518F8E435198D
:102B9000F9222518FAE43519FB222518FCE4351929
:102BA000FD22C3E0C696F608A3E0C696F608A3E0A9
:102BB000C696F608A3E0C696F622251810AF08F5CB
:102BC00018400C15198008F51840021519D2AF22CB
:102BD000BB000EC082C0838A838982F0D083D082FA
:102BE00022BB0101F722C0E0E493A36C7009D0E09E
:102BF000D0E0D0E00229F9A3A3D0E022E76670106C
:102C00000809E766700A0809E76670040809E766BC
:102C100022E066701008A3E066700A08A3E0667000
:102C20000408A3E06622C3E09608A3E09608A3E0A8
:102C30009608A3E096A2D265D03322C3E096F008AE
:102C4000A3E096F008A3E096F008A3E096F022C374
:102C5000E697F60809E697F60809E697F60809E602
:102C600097F622C3E493960874019396087402932E
:102C700096087403939622E627F60809E637F608C5
:102C800009E637F60809E637F622E026F008A3E061
:102C900036F008A3E036F008A3E036F022E647F667
:102CA0000809E647F60809E647F60809E647F62266
:102CB000700422600D18C6C333C608C633C6D5E0FB
:102CC000F41822E493F608740193F608740293F65C
:102CD00008740393F622E026F608A3E036F608A36C
:102CE000E036F608A3E036F622E657F60809E6577E
:102CF000F60809E657F60809E657F622E056F60800
:102D0000A3E056F608A3E056F608A3E056F622E044
:102D100056F008A3E056F008A3E056F008A3E056EA
:102D2000F022E4C396F608E496F608E496F608E482
:102D300096F622C6F4C608C6F4C608C6F4C608C687
:102D4000F4C622C3E09608A3E09608A3E09608A381
:102D5000E09622C3E7960809E7960809E79608096E
:102D6000E7962275D00075813F7518D1751904005A
:102D70000225EBE0F608A3E0F608A3E0F608A3E0DE
:102D8000F622600C08C6C313C618C613C6D5E0F4F5
:102D900022E6F008A3E6F008A3E6F008A3E6F02296
:102DA000CAC0E0E6F0A308DAFAD0E0FA22ECF0A319
:102DB000EDF0A3EEF0A3EFF022E0FCA3E0FDA3E032
:102DC000FEA3E0FF22E0FAA3E0FBA3E0FCA3E0FD0A
:102DD00022E0F8A3E0F9A3E0FAA3E0FB22E8F0A3E5
:102DE000E9F0A3EAF0A3EBF022E5C754F84401F5BB
:102DF000C77901222518F582E43519F58322122AB4
:102E0000D79CA306122AD7E3A306122AD7A6A406A4
:102E1000122AD7CEA406122AD7F4A406122AD7085B
:102E2000A506122AD71DA506122AD726A506122AFC
:102E3000D7A37A00122AD7CF7A00122AD7517D0061
:102E4000122AD7A87D00122AD7E87D00122AD7FCC3
:102E50007D00122AD7157E00122AD7067F00122A7B
:102E6000D7B77F00122AD7CB7F00122AD7D9B30653
:102E7000122AD7FDB306122AD716B406122AD7484B
:102E8000B406122AD778B406122AD7A5B406122A95
:102E9000D707B506122AD716B506122AD720B506C7
:102EA000122AD72DB506122AD767A506122AD78768
:102EB000A506122AD7C6A506122AD7E1A506122A08
:102EC000D700A606122AD766A606122AD76FA6062C
:102ED000122AD7CCA606122AD7F0A606122AD7B1F4
:102EE000A706122AD7BEA706122AD7CFA706122AEC
:102EF000D783C006122AD79BC006122AD7C7C0069E
:102F0000122AD7B58906122AD70F8B06122AD71D87
:102F10008B06122AD7308B06122AD7458B06122A27
:102F2000D75A8B06122AD76D8B06122AD7E18B0649
:102F3000122AD7468C06122AD7E88C06122AD7AC5A
:102F40008D06122AD7BC8D06122AD7CB8D06122ADF
:102F5000D7F8BC06122AD71CBD06122AD744BD06D4
:102F6000122AD76CBD06122AD7FDA706122AD7242B
:102F7000A806122AD743A806122AD7ABA806122AF7
:102F8000D7EF9F06122AD708A006122AD714A00648
:102F9000122AD728A006122AD746A006122AD750EE
:102FA000A006122AD75AA006122AD76DA006122A06
:102FB000D7FAA006122AD769A106122AD798A10625
:102FC000122AD7E6A106122AD735A206122AD7500E
:102FD000A206122AD75AA206122AD76BA206122AD2
:102FE000D7AEA206122AD7EDBF06122AD709D105FD
:102FF000122AD733D105122AD750D105122AD76306
:10300000D105122AD779D105122AD7D7D105122A8C
:10301000D70AD205122AD7FBD505122AD75BD705C6
:10302000122AD78ED705122AD7D8D705122AD72B1E
:10303000D905122AD753D905122AD768D905122AD9
:10304000D778D905122AD7BCD905122AD717DA059D
:10305000122AD727DA05122AD792B606122AD7AC37
:10306000B606122AD7D4B606122AD7EDB606122A09
:10307000D711B706122AD72FB706122AD746B70696
:10308000122AD774B706122AD78FB706122AD7BAD0
:10309000FF01122AD74EFC02122AD75EFC02122A26
:1030A000D763FD02122AD795FD02122AD7BBFD0273
:1030B000122AD7DEFD02122AD7F5FD02122AD72FD7
:1030C000FE02122AD798FE02122AD7DAFE02122A2C
:1030D000D719FF02122AD74AFF02122AD781FF020C
:1030E000122AD7049206122AD7699206122AD70FFB
:1030F0009306122AD7469306122AD7A49305122ABA
:10310000D73B9405122AD7689605122AD7539905FA
:10311000122AD7E19A05122AD74D9B05122AD79C6D
:103120009E05122AD7E79F05122AD7C2B706122A90
:10313000D70DB806122AD794F705122AD73AFA05FE
:10314000122AD7DFFA05122AD70BFB05122AD73924
:10315000FB05122AD76EFB05122AD796FB05122A09
:10316000D7F6FB05122AD748BB05122AD7B0BF05F0
:10317000122AD798C105122AD7C1C205122AD7A18F
:10318000C305122AD744C505122AD710C605122A2C
:10319000D764C605122AD7B0AC06122AD7BAAC0635
:1031A000122AD7DBAC06122AD7ADF104122AD7AD0A
:1031B000F604122AD71BF804122AD7D7F904122AC8
:1031C000D752FA04122AD7F1FA04122AD7EAFB04DA
:1031D000122AD71CFD04122AD734FE04122AD7144F
:1031E000FF04122AD725BA04122AD75DBA04122A7C
:1031F000D761C404122AD742C504122AD78EC60446
:10320000122AD7D7C704122AD78DC804122AD76129
:10321000C904122AD748CA04122AD730CB04122A6A
:10322000D7D2CB04122AD7FCCB04122AD7ACCD04B8
:10323000122AD71CCE04122AD735CE04122AD78CD4
:10324000CF04122AD73DD004122AD7BFD004122AA5
:10325000D76BD104122AD7DBD104122AD777D20434
:10326000122AD7F3D204122AD711D304122AD71361
:10327000D404122AD7C9D404122AD76FD504122A2B
:10328000D76CB206122AD796B206122AD7A9B3066D
:10329000122AD7ACB306122AD730BE06122AD7722A
:1032A000BE06122AD7B4BE06122AD7C4BE06122AF8
:1032B000D715F105122AD753F105122AD7BCF1050B
:1032C000122AD7D9F105122AD7F2F105122AD7A46A
:1032D000F205122AD7ADF205122AD7F2F205122A08
:1032E000D728F305122AD73FF305122AD7B1F305E1
:1032F000122AD73EF405122AD774F405122AD7CB26
:10330000F405122AD72FF505122AD752F505122AED
:10331000D7B6F505122AD712F605122AD74DF605AB
:10332000122AD782F605122AD794F605122AD7A6B2
:10333000F605122AD7DEF605122AD72AF705122A31
:10334000D768F705122AD7008006122AD7408106CF
:10335000122AD7638106122AD7748106122AD769E6
:103360008306122AD7898306122AD76FAA06122A41
:10337000D7A5AA06122AD7EDAA06122AD749AC0663
:10338000122AD7008005122AD7318105122AD76B5D
:103390008105122AD72A8305122AD7548305122AB7
:1033A000D7E18505122AD7218605122AD7B88705C5
:1033B000122AD74B8805122AD7A38805122AD74686
:1033C0008905122AD77E8905122AD7C08905122AB3
:1033D000D72F8B05122AD7818C05122AD7A48E05E8
:1033E000122AD7D28E05122AD7F98E05122AD702B1
:1033F0008F05122AD7528F05122AD7E48F05122A79
:10340000D7D49205122AD7579305122AD783FF03E0
:10341000122AD799FF03122AD7A3FF03122AD787AC
:10342000FB03122AD79DFB03122AD742FC03122A60
:10343000D781FC03122AD79EFC03122AD7CFFC03A4
:10344000122AD71CFD03122AD74FFD03122AD78A4E
:10345000FD03122AD776FF03122AD7F6B906122ADD
:10346000D74BBA06122AD796BA06122AD7E3B8065D
:10347000122AD755B906122AD793B906122AD7D4D9
:10348000B906122AD7D7F701122AD7DDF701122A77
:10349000D71DF801122AD70FFA01122AD73FFA01D5
:1034A000122AD7AEFA01122AD77CFB01122AD7BD05
:1034B000FB01122AD7EBFB01122AD775FC01122A55
:1034C000D78CFC01122AD799FC01122AD7A3FC0140
:1034D000122AD73FFE01122AD734FF01122AD77DC4
:1034E000FF01122AD757DA05122AD76DDA05122AF8
:1034F000D700DB05122AD72CDC05122AD721DD05DF
:10350000122AD7BEDD05122AD7FEDD05122AD77C86
:10351000DE05122AD7D9DE05122AD7E9DE05122ADE
:10352000D710DF05122AD763DF05122AD7D4E005AA
:10353000122AD7D9E005122AD7F9E005122AD76551
:10354000BF06122AD793BF06122AD7C8BF06122A6F
:10355000D7CABF06122AD7CCBF06122AD7DDBF06AC
:10356000122AD7DFBF06122AD7E2BF06122AD7DDFA
:10357000B006122AD74BB106122AD76DB106122A0D
:10358000D7A5B106122AD7DBB106122AD7D79C06D7
:10359000122AD71E9D06122AD7419D06122AD774D9
:1035A0009F06122AD78E9F06122AD7B99F06122A83
:1035B000D738C006122AD7C7E205122AD7A0E305DA
:1035C000122AD786E405122AD797E405122AD7A82B
:1035D000E405122AD7F4E405122AD7E8E605122AF0
:1035E000D73CE805122AD76CE805122AD733E9053B
:1035F000122AD791E905122AD7FFDA02122AD75ADE
:10360000DB02122AD701DC02122AD774DD02122A49
:10361000D74EDE02122AD70BDF02122AD722DF0290
:10362000122AD771DF02122AD7D5DF02122AD72534
:10363000E002122AD738E002122AD799E002122AB1
:10364000D7F2E002122AD70AE102122AD79EE30239
:10365000122AD7A2E402122AD7DDE402122AD731B5
:10366000E502122AD7CEE702122AD714E802122A5C
:10367000D787E802122AD7D1E802122AD7A5E90291
:10368000122AD7E8E902122AD702EA02122AD749F7
:10369000EA02122AD769EA02122AD70EEB02122A8C
:1036A000D7F2EB02122AD7FDEB02122AD74BEC021B
:1036B000122AD7A0EC02122AD7E7EC02122AD74B23
:1036C000EE02122AD76FEE02122AD7F6F002122A61
:1036D000D72DF102122AD735F202122AD759F20257
:1036E000122AD7C8F202122AD78BF302122AD7C69F
:1036F000F302122AD72CF402122AD741F502122A19
:10370000D789F502122AD793F502122AD796F50225
:10371000122AD7D2F502122AD7E5F502122AD76E5D
:10372000F602122AD797F602122AD7AAF602122A0E
:10373000D7D6F602122AD7FDF602122AD721F702AF
:10374000122AD79AF702122AD70CF802122AD74364
:10375000F802122AD746F802122AD775F802122A5E
:10376000D78BF802122AD7A6F802122AD7D4F80269
:10377000122AD7F4F802122AD73DF902122AD77872
:10378000F902122AD77FFA02122AD7DDFB02122A87
:10379000D7F3FB02122AD70AFC02122AD71CFC021A
:1037A000122AD706BC06122AD717BC06122AD7A09F
:1037B000BC06122AD7ECFF02122AD70AEA05122AFF
:1037C000D759EA05122AD7F9EB05122AD7CDED050C
:1037D000122AD70FEE05122AD7DAEE05122AD7E2FF
:1037E000EF05122AD704F005122AD760F005122A35
:1037F000D7E1F005122AD75D5000122AD77F50007A
:10380000122AD7D75100122AD7205200122AD7964F
:103810005200122AD7145300122AD7795300122AC1
:10382000D7BB5300122AD72A5400122AD7D55400E6
:10383000122AD74D5500122AD7925500122AD7A125
:103840005900122AD7A85B00122AD7DB5B00122A84
:10385000D72D5C00122AD7305F00122AD7AC5F0048
:10386000122AD75A6100122AD78C6200122AD7A4D2
:103870006300122AD7266400122AD7066500122A8E
:10388000D7716500122AD7856500122AD7676600AE
:10389000122AD7976700122AD7B26900122AD7AB2B
:1038A0006B00122AD78E6C00122AD7246F00122ABE
:1038B000D7C56F00122AD7C57000122AD727740007
:1038C000122AD7377400122AD77D7500122AD71A08
:1038D0007600122AD7447700122AD7D57700122A09
:1038E000D7027900122AD7477900122AD7DB79004C
:1038F000122AD716D604122AD7B6D604122AD720EF
:10390000D704122AD739D704122AD7C8D704122AC3
:10391000D70CD804122AD72BD904122AD767D90476
:10392000122AD7DAD904122AD725DA04122AD78420
:10393000DA04122AD72EDB04122AD717DE04122A41
:10394000D734DF04122AD7B1DF04122AD772E10478
:10395000122AD712E204122AD7B1E204122AD7148B
:10396000E304122AD789E304122AD798E404122A1E
:10397000D779E504122AD7AFE504122AD7E2E50485
:10398000122AD796E604122AD7C2E604122AD73D95
:10399000E704122AD7C0E804122AD73BEA04122A05
:1039A000D790EB04122AD703ED04122AD70FEE04A6
:1039B000122AD7B6EE04122AD724EF04122AD73CD3
:1039C000F004122AD7ACDA03122AD717DB03122A23
:1039D000D75FDB03122AD7A3DB03122AD70DDC0340
:1039E000122AD756DC03122AD791DC03122AD72BCE
:1039F000DD03122AD785DD03122AD7DFDE03122A60
:103A0000D768DF03122AD792DF03122AD799E0037F
:103A1000122AD7A8E103122AD7DAE103122AD7CA59
:103A2000E203122AD7DBE203122AD7F3E203122AB7
:103A3000D7D4E503122AD7F1E503122AD7C4E60347
:103A4000122AD7EEE603122AD705E703122AD72B4C
:103A5000E703122AD762E703122AD782E703122A62
:103A6000D7A9E703122AD7C1E703122AD7A1E8038F
:103A7000122AD7F9E803122AD76FEA03122AD7FCD1
:103A8000EA03122AD720EB03122AD737EB03122AB4
:103A9000D702EC03122AD7A5EC03122AD7CBEC03EA
:103AA000122AD7EAED03122AD709EE03122AD78A7F
:103AB000EE03122AD7F7EE03122AD73BEF03122A9E
:103AC000D7C9EF03122AD734F003122AD7E6F0033E
:103AD000122AD7D6F203122AD7AEF303122AD7003E
:103AE000F403122AD7FAF403122AD707F603122A8C
:103AF000D71CF703122AD72AF703122AD7FAF7039B
:103B0000122AD79AF803122AD7DEF803122AD7F31B
:103B1000F803122AD7F3F903122AD796FA03122AC6
:103B2000D7EEFA03122AD76C9906122AD7A59A065D
:103B3000122AD76B9B06122AD7CF9B06122AD7438D
:103B40009C06122AD7048E06122AD7228E06122A23
:103B5000D7668E06122AD78C8E06122AD7B28E0608
:103B6000122AD7CA8E06122AD791BD06122AD7FA70
:103B70008E06122AD7658F06122AD7A78F06122A19
:103B8000D7BC8F06122AD7C39006122AD7DE90061A
:103B9000122AD7E79006122AD7F09006122AD7F9F0
:103BA0009006122AD7039106122AD7809106122A6C
:103BB000D7CF8406122AD7EB8806122AD7078906A0
:103BC000122AD70C8906122AD75CAF06122AD7A967
:103BD000FC05122AD763A306122AD731FE05122A42
:103BE000D75BFE05122AD7A1FE05122AD79AFF0538
:103BF000122AD737B506122AD7D6C006122AD7C935
:103C0000FF05122AD7008002122AD7578002122AF3
:103C1000D7C38002122AD74F8102122AD705820207
:103C2000122AD74D8202122AD7668202122AD78917
:103C30008202122AD7AB8202122AD7E98202122A02
:103C4000D7388302122AD7638302122AD7C183028C
:103C5000122AD7688402122AD7108502122AD78C1A
:103C60008502122AD7598602122AD7A08602122A62
:103C7000D7EC8602122AD7748702122AD7AD8702A0
:103C8000122AD7038802122AD71F8802122AD74E77
:103C90008802122AD75A8A02122AD7888B02122A3D
:103CA000D7B48B02122AD7E88B02122AD7098C02CA
:103CB000122AD7188C02122AD7238C02122AD7D2A2
:103CC0008C02122AD7428D02122AD7CD8D02122AD7
:103CD000D7D58D02122AD7428E02122AD77E8E02A3
:103CE000122AD7448F02122AD7179002122AD76CB1
:103CF0009002122AD70B9102122AD7659102122A3A
:103D0000D7AA9102122AD7439402122AD786950283
:103D1000122AD7709802122AD7549902122AD73839
:103D20009A02122AD75D9A02122AD76E9A02122A92
:103D3000D7E09A02122AD7779B02122AD7EB9B026E
:103D4000122AD7DB9C02122AD7009D02122AD7180A
:103D50009E02122AD7369E02122AD7529E02122A99
:103D6000D7C59E02122AD7D49E02122AD75C9F0280
:103D7000122AD759A002122AD766A002122AD76F98
:103D8000A002122AD751A202122AD77DA302122A18
:103D9000D78DA302122AD7C8A402122AD747A50298
:103DA000122AD778A602122AD7B4A602122AD78ED0
:103DB000A802122AD74BAC02122AD75FAC02122AF1
:103DC000D769AC02122AD773AC02122AD77DAC0293
:103DD000122AD787AC02122AD7A0AC02122AD7AA7D
:103DE000AC02122AD721AD02122AD72CAD02122A18
:103DF000D75BAD02122AD783AD02122AD78EAD024D
:103E0000122AD7F3AD02122AD7FDAD02122AD70823
:103E1000AE02122AD72CAE02122AD750AE02122AB4
:103E2000D7C2AE02122AD70BAF02122AD727AF028F
:103E3000122AD798AF02122AD7E4AF02122AD72D3E
:103E4000B002122AD76BB002122AD7ECB002122AA3
:103E5000D793B102122AD758B302122AD7BDB302A0
:103E6000122AD7EBB402122AD711B502122AD75957
:103E7000B602122AD793B902122AD791BB02122A8C
:103E8000D75CBD02122AD7F5BD02122AD7F6BF02AF
:103E9000122AD7ABC002122AD7E4C002122AD75482
:103EA000C102122AD75EC102122AD787C302122A80
:103EB000D78AC402122AD7C7C502122AD71EC60241
:103EC000122AD7C9C602122AD779C802122AD7C61F
:103ED000C902122AD7E6C902122AD73BCA02122AFD
:103EE000D73CCB02122AD764CB02122AD7C3CB020B
:103EF000122AD7BBCC02122AD732CD02122AD745BA
:103F0000CE02122AD7B3CE02122AD7B2CF02122A79
:103F1000D70CD202122AD735D202122AD79BD3024B
:103F2000122AD71DD502122AD774D502122AD722F7
:103F3000D602122AD7C7D602122AD72AD702122AA5
:103F4000D7E8D702122AD77AD802122AD7D9D802AC
:103F5000122AD71BD902122AD74CD902122AD7A368
:103F6000DA02122AD7008003122AD7328003122ADB
:103F7000D76B8003122AD7348203122AD7788203A0
:103F8000122AD74E8303122AD7AD8303122AD7C32E
:103F90008403122AD70F8503122AD79D8703122A7A
:103FA000D7818A03122AD7C88B03122AD7608C03C1
:103FB000122AD76C8C03122AD7B58C03122AD7F792
:103FC0008D03122AD7ED8E03122AD7178F03122AD8
:103FD000D76D8F03122AD7C68F03122AD7399003C1
:103FE000122AD76F9203122AD7F19303122AD7DC31
:103FF0009403122AD7269603122AD75E9803122A10
:10400000D75B9B03122AD76A9B03122AD7FE9B0316
:10401000122AD7A99C03122AD7EC9C03122AD7355F
:104020009D03122AD7859D03122AD7E99D03122AE0
:10403000D75B9E03122AD7779E03122AD7A69E0328
:10404000122AD7E59E03122AD7E09F03122AD78FA0
:10405000A003122AD70CA303122AD73EA403122AC4
:10406000D716A503122AD798A503122AD7CDA903DC
:10407000122AD7FCA903122AD757AA03122AD78AD1
:10408000AA03122AD702AB03122AD735AB03122A8E
:10409000D796AB03122AD7E6AB03122AD7B3AC03E9
:1040A000122AD76CAD03122AD730AE03122AD7AA30
:1040B000B003122AD70CB203122AD75DB303122A17
:1040C000D781B403122AD784B403122AD7B3B40316
:1040D000122AD7ABB603122AD76AB703122AD79986
:1040E000B703122AD7B7B803122AD77FB903122A07
:1040F000D740BB03122AD7B0BB03122AD7E2BB03B7
:10410000122AD702BC03122AD771BC03122AD76A1B
:10411000BD03122AD78EBD03122AD701BE03122A6D
:10412000D72AC003122AD789C003122AD7DDC003B9
:10413000122AD70CC303122AD7EFC303122AD77748
:10414000C403122AD75BC503122AD7E5C503122A76
:10415000D7F9C503122AD70DC603122AD721C603E1
:10416000122AD735C603122AD762C603122AD7925B
:10417000C603122AD74DC803122AD723C903122A0D
:10418000D7C7C903122AD71CCA03122AD77FCA036A
:10419000122AD7C8CA03122AD7EFCA03122AD7B7DE
:1041A000CB03122AD75DCC03122AD7E3CD03122A00
:1041B000D76ECE03122AD7B5CE03122AD727CF0344
:1041C000122AD77CD003122AD725D103122AD75915
:1041D000D103122AD771D103122AD714D203122A7B
:1041E000D790D403122AD738D603122AD756D6032B
:1041F000122AD774D603122AD740D703122AD78E91
:10420000DA03122AD7948101122AD7D68101122A01
:10421000D7438701122AD78F8701122AD7D5870162
:10422000122AD7268901122AD78B8901122AD7CFC1
:104230008901122AD7358B01122AD7908E01122AB2
:10424000D7C38F01122AD7529B01122AD7E29B01B2
:10425000122AD7CC9E01122AD731A001122AD79454
:10426000A001122AD7B0A101122AD71AA301122A3B
:10427000D7F9A301122AD767A601122AD7F9A701F5
:10428000122AD78AA801122AD7A9A901122AD73639
:10429000AA01122AD740AA01122AD768AA01122A13
:1042A000D70BAB01122AD7F6AB01122AD7BEAC014D
:1042B000122AD74BAD01122AD761AD01122AD77E3F
:1042C000AD01122AD7A7AD01122AD7D4AD01122A07
:1042D000D718B001122AD7EBB001122AD72FB1019B
:1042E000122AD7B1B101122AD752B201122AD784A9
:1042F000B201122AD7CBB201122AD7FEB201122A7A
:10430000D742B301122AD791B301122AD796B3012B
:10431000122AD7F2B301122AD736B401122AD720B3
:10432000B501122AD785B501122AD7E3B501122AA1
:10433000D762B601122AD7DAB901122AD7DDBA013B
:10434000122AD773BC01122AD7B6BF01122AD75836
:10435000C001122AD7A1C201122AD75CC301122AB6
:10436000D79BC301122AD75FC501122AD77CC5018A
:10437000122AD785C501122AD78EC501122AD799CC
:10438000C501122AD7B8C501122AD7DCC701122AE3
:10439000D739C801122AD743C801122AD74DC801FC
:1043A000122AD7B0C801122AD70CC901122AD7196C
:1043B000CA01122AD77ACA01122AD78BCB01122A34
:1043C000D7D4CB01122AD79ECC01122AD7B5CD0162
:1043D000122AD779CE01122AD7C5CF01122AD7C9FE
:1043E000D001122AD7C2D101122AD7DAD101122A5A
:1043F000D711D201122AD71BD201122AD725D201F6
:10440000122AD730D201122AD74ED201122AD796B9
:10441000D201122AD7F4D201122AD71BD301122AB1
:10442000D72DD301122AD7D6D301122AD70FD40100
:10443000122AD740D501122AD79DD501122AD78E2C
:10444000D601122AD7C4D601122AD734D701122A8C
:10445000D7B0D701122AD731D901122AD758DA0199
:10446000122AD71ADB01122AD7E8DB01122AD76DEC
:10447000DC01122AD71CDD01122AD704DE01122A20
:10448000D79DDE01122AD779DF01122AD7E1DF0199
:10449000122AD7A0E001122AD7FCE001122AD76025
:1044A000E101122AD726E201122AD749E201122A93
:1044B000D703E301122AD725E301122AD786E301A5
:1044C000122AD7B6E501122AD7AFE601122AD75B26
:1044D000E701122AD778E901122AD7C1E901122A85
:1044E000D70CEA01122AD768EA01122AD7C6EA01D4
:1044F000122AD7EAEA01122AD70EEB01122AD74371
:10450000EB01122AD76BEB01122AD7B0EB01122A6A
:10451000D70EEC01122AD767EC01122AD761ED0100
:10452000122AD70DEF01122AD752EF01122AD77B98
:10453000EF01122AD704F001122AD777F001122ACC
:10454000D785F001122AD7A9F001122AD7FFF0016E
:10455000122AD71AF101122AD7D5F101122AD7014E
:10456000F201122AD744F201122AD7A7F201122A25
:10457000D7B7F401122AD7E3F401122AD79EF50126
:10458000122AD782F601122AD716F701122AD789E2
:10459000C605122AD7C1C605122AD7E2C605122AB5
:1045A000D724C705122AD788C705122AD792C7056C
:1045B000122AD7A2C705122AD7D9C705122AD7822D
:1045C000CB05122AD74ACD05122AD72ECF05122A9B
:1045D000D7D0CF05122AD75AD005122AD750800437
:1045E000122AD7F98004122AD7D88104122AD7E4D4
:1045F0008204122AD7048304122AD7268404122A9A
:10460000D7D68504122AD7438604122AD7148704E2
:10461000122AD71A8804122AD7928804122AD7CDD0
:104620008804122AD7268904122AD7618904122AFB
:10463000D7AA8904122AD73E8A04122AD7D48A0418
:10464000122AD7A98B04122AD77C8C04122AD70AE3
:104650008D04122AD7308D04122AD75D8D04122AB8
:10466000D78E8D04122AD75B8E04122AD76B8E0444
:10467000122AD7BE8E04122AD7CB8E04122AD7D87C
:104680008E04122AD7E18E04122AD7458F04122AEB
:10469000D7A38F04122AD7EE8F04122AD7099004C9
:1046A000122AD7309004122AD74D9004122AD759D3
:1046B0009004122AD7EA9104122AD7039204122AEC
:1046C000D77F9204122AD7929204122AD7A2920478
:1046D000122AD7469304122AD7B29404122AD7C5B5
:1046E0009504122AD7659604122AD76F9604122AC7
:1046F000D7EE9604122AD7FF9604122AD73E9704C3
:10470000122AD76C9704122AD7399804122AD79004
:104710009804122AD7C99804122AD71F9904122A7A
:10472000D73D9904122AD78B9904122AD7569A0496
:10473000122AD7A49A04122AD7F19A04122AD774FB
:104740009B04122AD79E9B04122AD7D49B04122AB8
:10475000D7E39B04122AD7429C04122AD7BA9C049E
:10476000122AD7FB9C04122AD74B9D04122AD77613
:104770009D04122AD7909D04122AD7AA9D04122ABA
:10478000D77F9E04122AD7899E04122AD7C49E047A
:10479000122AD7D49E04122AD7DD9E04122AD72EBD
:1047A0009F04122AD7429F04122AD764A004122A17
:1047B000D777A004122AD78CA004122AD71FA104ED
:1047C000122AD793A104122AD738A204122AD74357
:1047D000A204122AD7A6A304122AD7C2A304122A1B
:1047E000D70EA404122AD77CA404122AD7AEA4049C
:1047F000122AD7C8A404122AD728A504122AD7C778
:10480000A504122AD712A604122AD765A804122AD0
:10481000D7FDA804122AD774A904122AD7D1AB0451
:10482000122AD7E9AB04122AD7ECAB04122AD7F824
:10483000AB04122AD70CAC04122AD714AC04122AE7
:10484000D74BAC04122AD73FAD04122AD7C9AD0406
:10485000122AD74BAE04122AD7CBAE04122AD7A203
:10486000AF04122AD7C4AF04122AD75DB004122AAB
:10487000D7BAB004122AD7BDB004122AD72CB1047B
:10488000122AD778B204122AD78BB304122AD71669
:10489000B404122AD729B504122AD7F0B504122A73
:1048A000D721B604122AD747B604122AD750B60425
:1048B000122AD77FB604122AD72FB704122AD7DFBD
:1048C000B704122AD752B804122AD7F5B804122A0C
:1048D000D768B904122AD7A7B904122AD7F0B904A5
:1048E000122AD7EDBB06122AD787BB06122AD70495
:1048F000BB06122AD75BBF06122AD7F3BE06122ABE
:10490000D7DEBE06122AD7CEBE06122AD7D9FF029C
:10491000122AD7EFFF02122AD7E67F00122AD7DF2A
:104920007F00122AD767BA05122AD7B4B905122A0E
:10493000D7E8B805122AD744B705122AD70DB7050C
:10494000122AD7DFB605122AD78CB605122AD7E36A
:10495000B505122AD74BB505122AD725B505122A57
:10496000D7DAB405122AD7AEB405122AD722B40575
:10497000122AD7C1B305122AD77CB305122AD7B998
:10498000A206122AD797B205122AD702C106122A06
:10499000D7079906122AD7489706122AD77496067F
:1049A000122AD7FB9506122AD7ED9506122AD71D93
:1049B000BE06122AD7B5B105122AD75DB105122A53
:1049C000D7CDB005122AD7CDBD06122AD788B0059B
:1049D000122AD76CB005122AD71AAF05122AD7DCD3
:1049E000AE05122AD7BFFC05122AD7B6AE05122A89
:1049F000D794BD06122AD73AAE05122AD703AE05C0
:104A0000122AD7BCAD05122AD75BAD05122AD72EC4
:104A1000AD05122AD704AD05122AD7D0AC05122A4B
:104A2000D7A8AC05122AD748AC05122AD732AC0554
:104A3000122AD7F7AB05122AD76EAB05122AD7B5C3
:104A4000A705122AD773A505122AD7ECA205122AA8
:104A5000D774A205122AD715A105122AD725A205B7
:104A6000122AD7B2A105122AD773A105122AD7E2BA
:104A70008E0600000080FB8F000100E7198700010F
:104A800000E61935000400A31C25000200A71C261F
:104A9000000200A91C27000200AB1C28000100B581
:104AA0001C29000100B61C84000400B71C8600010C
:104AB00000BB1C2A000100BC1C2B000100BD1C2CEB
:104AC000000100C11C2D000800CA192E000100C2FF
:104AD0001C2F000100C31C30000100C41C31000168
:104AE00000C51C32000100C61C33000100C71C3485
:104AF000000100C81C36000100D21938000100C9AD
:104B00001C39000100C01C83000200DD1C63000191
:104B100000E31964000100BE1C65000100BF1C6DAC
:104B2000000100E41971000800C21966000100DCF0
:104B30001C43000100CD1C44000200CE1C450001B6
:104B400000D01C46000200D11C47000800DB1948B9
:104B5000000100D31C4B000100D41C04000100DF45
:104B60001CA1000100E21C37000100E11C880001CB
:104B700000E01C3C000100D3193D000100CA1C49A3
:104B8000000200D51C67000100E5194D000200D7A6
:104B90001C4E000100D91C4F000200DA1C3E00012F
:104BA00000DA1951000100D41952000100CB1C5346
:104BB000000100CC1C54000100D5190000000000C9
:104BC000000001363601010001020100010301006D
:104BD0000104010606050200000701003408010077
:104BE0000F090401010D0100FF0E0800001702006B
:104BF00000190100FF1A0100011B0100FE1C010049
:104C0000081D0200001F0100012001000121020017
:104C1000002301000F2402000026010001270100EB
:104C200008280200FF2A0100072B0102402C010086
:104C3000002D0100012E0100012F0100FF30010BAA
:104C40001D310800003A0100083B01000F3C010043
:104C5000013D0100FF3E0400004204000046040044
:104C6000004A0400004E04000052040000560400F4
:104C7000005A040000010371030103010301030151
:104C800003010322030203010310030003000300D6
:104C90000300030003000300034203000324030690
:104CA0000300030003040312032503230325032346
:104CB0000304030403000300030003440300030090
:104CC000032303000365032100350381030003056B
:104CD0000300030003000300032503230301017104
:104CE00001010101011101010131010101010180F5
:104CF00001100161013B0014006301730172016244
:104D00000143010001130106013D013500040112B8
:104D1000010001000100010001040104013301331D
:104D2000013C01440132013600000100016501002F
:104D300001350081010001050182018301000103A9
:104D400002710230016002110270020102020202CD
:104D5000028002100261023A004100630273027293
:104D60000262024302000213023800000200020441
:104D700002120200020002000200020402040237D2
:104D80000037003C024402000239000002000265C4
:104D90000200023502810200020502820283020043
:104DA000020304710402046004110470040204028A
:104DB0000401040204100461040004140463047375
:104DC0000472046204430400041304060400040093
:104DD00004040412040004000400040004510464E8
:104DE0000000040004000444040004000400040063
:104DF0000465040004350481046400050400048390
:104E000004000403007100300160001100700031E3
:104E100002200350048000100061000000140063B1
:104E200000730072006200430000001300060000DF
:104E30000000000400120000000000000000000458
:104E4000000400370037003C02440000000000006E
:104E50000000006500000035008100000005000032
:104E6000008300000036000100060000000F000073
:104E7000000000000000000000000003FFFF000031
:104E80000403FFFF0000FFFF0FF4010005C404034B
:104E900020000100000B00000000000000000301E2
:104EA0000F000000000000000000000000000000F3
:104EB00000000000000000000000000000000000F2
:104EC00000000000003239130090381F0096381F90
:104ED000809C38010032390200183803001E380463
:104EE00000243805002A380600363830005438319E
:104EF000004E38320060383300663835006C383484
:104F0000007238360078381100843814008A381559
:104F1000004838FFFF00000A000000020000000403
:104F20000000000800000010000000200000004009
:104F300000000080000000000100000002000000EE
:104F40000400000008000000100000002000000025
:104F5000400000014A42068042087A420B98421003
:104F6000143F0AAA42025042056E420756420C32D2
:104F7000420D3E4264EC3CFF000007ECFDFDFDEC01
:104F8000DCDCCCBCACAC9C9C8C7C7C6C6C5C5C5CE1
:104F90004C4C3C3C2C2C1C1C03EAF5E5D5D5C5B586
:104FA000A5959585857575656555554545353525B1
:104FB0002515150500160F00000B150B0200022227
:104FC0000F3300000E5A6967426565416C6C696178
:104FD0006E6365303901030507090B0D0F000204EC
:104FE00006080A0C0D0001191618161618230300DE
:104FF000303017181921301B1D1F3030301618198A
:1050000020231A1C1E3000393D3F373C3C362C44CF
:105010002D00034A49434E181A2505020C0E020BB7
:10502000040B0A0708000F02040201010101090232
:10503000E803000000BE040A0000E8030E000000C0
:105040007F001E1E050303000404010A0C0C080166
:105050001E000C010903010C05081508FFC082C0E1
:1050600083901940E4F0A3F07C177D1A7AAD7B1889
:1050700012347C123D1C123F62123D2202657E7486
:10508000F512251974F5122BBAE9FF8A08EBFE8C8C
:1050900009E9705B74026A703E7908123788750AF4
:1050A00000780A122B13E509F50A780A122B13EE81
:1050B000F50A780A122B139018C912294F901CBBBD
:1050C000E0F97CDB7D19901CDD126422123D4674F0
:1050D00007122B220251A674016A60030251AB79B8
:1050E000081237887B00EEFAF9123D880251A67447
:1050F000016F600874026F60030251ABEA600574CF
:10510000036A70477902123788901CBBE0F9901847
:10511000C9122DC5123D34E9F89018D8E0A2E34039
:1051200010E9700D901944E004F06404700312510A
:10513000C5740365087071901945E0F9740129F090
:10514000E9C3940540621251C5805D74016A705BC9
:1051500074016F790A702E1237887401122DF4E4ED
:10516000F07402122DF47403F004122DF4E4F0A391
:10517000F0A3F0A3F07408122DF4E4F0AA18AB1910
:1051800012425C8036123788901CB112294F7A0087
:105190007B20125B77122B22901CBBE0F99018C980
:1051A000122DC5123D6AE9F8E860109081171229A6
:1051B0004F7A017B00125B77122B22740B122B2289
:1051C0007F030228019018C9E4F0A374F8F0A374D7
:1051D000FFF0A37407F02274F6122519E9FFEAFE26
:1051E0007AD1F91232F08A828B83E5824583702A64
:1051F0007A027B001232D2EA4B700E7A107B00905A
:1052000018CDE0F912331480148A828B8374D1F0A4
:10521000EFA3F0EEF91232DE8003EFA3F002542583
:1052200074F712251989089004D1127725FF901C74
:105230009EE0F47003A3E0F470319005E1E0901C6F
:105240009EF0A3E4F080248E828F83A31262866096
:105250000F8E828F83A3A3126283FAA908123800EB
:105260008E828F8312614CE8FEE9FFEE4F70D8907A
:105270001C9EE0F47003A3E0F4600A901C9EE0FA28
:10528000A90812380012436A90189712599B1243CA
:10529000647F0102280174F0122519890B8C0C75AA
:1052A00009007508007410122DF412614C7412126A
:1052B0002DF4126996FD8047125360F50EA3E0F5B8
:1052C0000FAE08EE2EFEE433FFEA2EF582EB1266F7
:1052D0002D650E7004A3E0650F7019AE09EE2EFE69
:1052E000E433FFEC2EF582ED3FF583E50EF0A3E508
:1052F0000FF00509050AE50AC3950C40BB0508E552
:1053000008C3950B5005750A0080EBA90980007F42
:105310000802280174F4122519890B7D00740C12FF
:105320002DF412614C80010DEDC3950B502E750AC2
:10533000008002050AE50AC39C50ECED25E0FEE47E
:1053400033FFEA2EF582EB3F126B8F125360650834
:105350007004A3E0650970DB790180027900801494
:10536000AE0AEE2EFEE433FFE82EF582E9125B6111
:1053700022122B227F0402280174F61225191254DE
:105380000F7003A3E06D70177508D67509187808BB
:10539000122B0FEEFA1239387402122B22801A7572
:1053A00008027509807808122B0F8A088909780885
:1053B000122B0F1253FD122B22806A74F61225193C
:1053C00012540F7003A3E06D70177508E375091888
:1053D0007808122B0FEEFA12393E7402122B22803B
:1053E0001A7508037509807808122B0F8A08890935
:1053F0007808122B0F1253FD122B228028EE240E58
:10540000125B5EFD7C8012663512395C740422EA00
:10541000FEEBFF12664CFCE439FD901897E06C221D
:105420007402122B227F0202280174F612251974CD
:10543000FE122BBAEAFEEBFF851882851983E4126F
:1054400054CE126787FBECFA88828983A3A3E0F924
:10545000750900750800600574FF6970057508829C
:10546000803E901897E06A7003A3E06B701BAA1847
:10547000AB19124A24E9FA8518828519831269A1A9
:1054800070037508838A0980179019E6E060046448
:105490000170057508818008E0640270037508805A
:1054A000851882851983126996FDA908EEFAEFFB2B
:1054B000123944E50960148518828519831269A19F
:1054C0006009851882851983126FBE025420F0A3EB
:1054D000F01275FE2274F2122519EAFEEBFF750830
:1054E00000750900126648F50AE439F50B12436AA3
:1054F000EA650A7003EB650B7012124A12E914F5A3
:105500000879017A0C7B19124A0C8003750980EE28
:10551000240E12662AF50C780C122B13750C0C75E0
:105520000D19780C122B0F7808122B13780A122BF6
:105530000FE509F5087808122B1312641112662A78
:10554000F97A057B8012394A740702786374F6127F
:105550002519E9FF7E0080328A828B83E0F508A35B
:10556000E0F8E4C8F9E50828E439F509EE25E0F8A3
:10557000E433F9EC28F582ED39F583E508F0A3E58D
:1055800009F0EA2402FA50010B0EEEC39F40C90253
:10559000542574E812251974FC122BBA8A168B173D
:1055A0007511007402122DF4E4F0A312678F1254E7
:1055B000CE3517125B6FF50B850A82F5831279C918
:1055C000FEE439FF850A82850B83A3A3E0FA850AEE
:1055D00082850B83A3A3A3E0F9EAF508E439F50972
:1055E000EEFAEFFB124406E964016016EEFAEFFBF7
:1055F000124406E97038901897E06E7003A3E06FCC
:10560000602C127365122B13E4F508F50978081263
:105610002B0F7808122B13901897122957750880B2
:105620007808122B13125969122B22025948850A45
:1056300082850B83A3A3A3A3E0F510E50A2405F557
:105640000A5002050BE51060281278DA7402122D58
:10565000F412599B7402122DF41269A160137402A2
:10566000122DF412595FA9101238308A0A8B0B8060
:1056700003751000850A82850B83127874602412EA
:1056800078DA851882851983EAF0A3EB1269A7E816
:1056900049601085188285198312595FA90F123845
:1056A000308003750F009004D18052850A82850BEB
:1056B00083A3A3A3A3A3A3A3A3E4F0A3F0AA0AAB89
:1056C0000B851482851583A3A3E0F8126283F91277
:1056D00032DE851282851383E0C0E0A811740C28A5
:1056E000F582E43419F583D0E0F00511A2005007EB
:1056F000AA12AB1312337A851482851583E0F51450
:10570000A3E0F515E514451570030258C58514820C
:10571000851583A312628660DE851482851583A3B6
:10572000A3A3A3A3A3A3A3E0A2E050CB85148285E7
:105730001583A3A3A3A31269A1851482851583A34E
:10574000A3601E126287FA7901851482851583A3EE
:10575000A3A3A31259521227628A128B13D200807C
:105760000F125952A3A3A3E0F512A3E0F513C20050
:10577000E512451370030256EC851282851383A34C
:10578000E065087004A3E06509600F74FF650870A8
:105790000474FF650960030256EC85128285138349
:1057A000A3A3A3A3A3A3A3122957851282851383BE
:1057B000A3A3A3A3A3A3E0FC7404122DF4126422F8
:1057C000A9101238127402122B22E9703C85128241
:1057D000851383A3A3A3A3A3A3A3A3A3A3122957BE
:1057E000851282851383A3A3A3A3A3A3A3A3A3E0EA
:1057F000FC7402122DF4126422A90F1238127402E2
:10580000122B22E970030256ECE50F2510C3332456
:105810000AFA7B001232D28A0A8B0BEA4B7003021F
:1058200056D28A828B8374D2126B998A828B83A31D
:10583000A3E8F0A3E9127843A3E5101279D3E50FAA
:10584000F0E510602CEA240AFAE4350BFB850A82A5
:10585000850B831259967402122DF4125989122B5A
:105860000BAC10EC2CFCE433FD127097122B228051
:105870000D8A828B83A3A3A3A3A3E4F0A3F0E50F77
:1058800070030256ABA810E828F8E433F9E50A28BB
:10589000F8E50B39F9E8240AFAE439FB850A828530
:1058A0000B83A3A3A31259968518828519831259D5
:1058B00089122B0BAC0FEC2CFCE433FD1270971209
:1058C0002B220256BDE5116025127365122B13754C
:1058D000080C7509197808122B0FE511F5087808DE
:1058E000122B139018971229577508008029EEFA89
:1058F000EFFB124406E9702A127365122B13750828
:105900000C7509197808122B0F7508007808122BEE
:10591000139018971229577808122B1312596912ED
:105920002B227402122DF41269A160087402122D48
:10593000F4126FBE8518828519831269A1600985EA
:105940001882851983126FBE7404122B227F1002F5
:10595000280112595622E0F8A3E0F583888222E05C
:10596000FCA3E0FDAA0AAB0B22E5162402FCE435F9
:1059700017FDE516240FF582E43517F583E0F97A73
:10598000067B8012394A740722E0F50CA3E0F50D7E
:10599000750E00780C22A3A3A3A3A3EAF0A3EBF057
:1059A0002274F112251974F4122BBA8A088B09ECAF
:1059B000FEEDFF740B122DF47403F0122B921234CF
:1059C0007C1264FA7403122B92123476E9600A1284
:1059D0005B666010E06401600B8518828519837432
:1059E00084025B128E828F83A3A3A3A3A3A3A3A38A
:1059F000E06013F46010125B667016EE24141266F9
:105A00002A6003F4700B8518828519837482025B07
:105A1000121276E9E064217002A3E06003025AE901
:105A2000851882851983748CF0125B666003025AB4
:105A3000D37401122B9AEE240BFAE43FFB12408E32
:105A4000E96003025AD31237768A0A8B0BEA4B704D
:105A500003025B138E0C8F0D750E00780C122B0B4E
:105A60007C157D00127097122B2285088285098390
:105A7000A3A3E50A2415FCE4350BFD7409122A5092
:105A800012731AC0E0E50A241E125B4BD0E0125FCD
:105A9000A3C0E0E50A241F125B4BD0E0F0E50A2426
:105AA00020125B4B7405F0EE240BFE50010FFAEF51
:105AB000FB12494C7D007C007900EEFAEFFB1239B5
:105AC0000290811712294F7A007B10125B77122BFC
