:03000000020006F5
:03005F0002000399
:0300030002008D6B
:10006200AE82AF837C007D00C3EC9EED9F501B7A75
:10007200007B00C3EA94FFEB94FF50070ABA00F337
:100082000B80F00CBC00E10D80DE2253F4FDAEFECD
:100092004306028EFE53F3FEAEFD7F004306018E41
:1000A200FDD291C280900005120062C291D280906E
:0700B200000512006280EA64
:06003500E478FFF6D8FD9F
:100013007900E94400601B7A009000BD780175A067
:1000230000E493F2A308B8000205A0D9F4DAF2754C
:02003300A0FF2C
:10003B007800E84400600A790175A000E4F309D860
:10004B00FC7800E84400600C7900900001E4F0A318
:04005B00D8FCD9FAFA
:0D0006007581071200B9E582600302000356
:0400B900758200222A
:00000001FF
