:0614000002148B024BFDFB
:01140B0032AE
:0114130032A6
:01141B00329E
:011423003296
:01142B00328E
:031433000244412F
:01143B00327E
:011443003276
:03144B000253B198
:03145300021ABEBC
:03145B00021D98D7
:011463003256
:03146B000244C474
:011473003246
:01147B00323E
:03148300024F29EC
:0314E70002148666
:03148600022E52E1
:1014EA00AF83E58290F554F0EFA3F0C2A0C2A4D274
:1014FA00A375E10490DF3BE0FFBF01F890F554E0EB
:10150A00FEA3E090DF06EEF0C2A090FC8CE024FF80
:10151A0092A4E06401FF24FF92A375E10290DF3BED
:10152A00E0FFBF0DF8227E007F0090FC28E0FCA3BC
:10153A00E0FD8E028F03C3EA9CEB9D503AEE240035
:10154A00FCEF34F0FD90FC26E0F513A3E0F5148AD5
:10155A00828B83C007C006C005C0041258E6AA825F
:10156A00AB83D004D005D006D0078C828D83EAF0F5
:10157A000EBE00B60F80B322E58290F556F0E0FF6A
:10158A00E59CC39FF59CE59C24FAF59C439E10D2EA
:10159A00BA22AF9E74EF5FF59E22AF83E58290F583
:1015AA005AF0EFA3F090FC21E06013905AA812457C
:1015BA003390FC21E0F5821245757582EF2290FC8A
:1015CA00217406F090DF3BE0FFBF130280F6C29160
:1015DA0090F557E0FEA3E0FF90FC88EEF0EFA3F051
:1015EA0090FC8274F1F0E4A3F090FC187472F07429
:1015FA00F3A3F090FC80E4F0A3F090FC33F090FCAD
:10160A007CF090FC32F090FC7E04F0E4A3F090FCB5
:10161A007D7402F090F55CE4F090000012175D9082
:10162A00F55AE0FEA3E0FF90F559E0FD7B007C004F
:10163A008D017A00C3EB99EC9A50548B02EA75F04B
:10164A00F0A42EF9E43FFA90F55C74F0F089828AEE
:10165A0083C007C006C005C004C00312175DAA8272
:10166A00D003D004D005D006D007EA601B905AFAFE
:10167A00C002124533D00290FC21E4F08A82C002F3
:10168A00124575D0028A82220BBB00A40C80A1905D
:10169A00FC8BE0FF30E33390FC88E0FEA3E0FFEE32
:1016AA00540F602690FC88E0FEA3E053060F7F00EB
:1016BA007410C39EFEE49FFF90FC88E0FCA3E0FD4B
:1016CA0090FC88EE2CF0EF3DA3F090FC88E0FEA39E
:1016DA00E0FFC374FF9EE49F502390FC88E0FEA3C2
:1016EA00E090DF02EEF090DF04E0FF74FC5FF0E0D0
:1016FA00FF74024FF090FC8A7401F0801290FC880B
:10170A00E0FEA3E0FF90DF02EEF090FC8AE4F090A6
:10171A00FC8CE024FF92A0C2A490FC8CE06401241B
:10172A00FF92A375E1037E607FEA90DF3BE0FDBD97
:10173A00130280091EBEFF011FEE4F70EDD291EE1B
:10174A004F700C90FC467413F0905B12124533757F
:10175A00820022AF83E58290F55DF0EFA3F090F569
:10176A005CE0FF240F500A905B231245337582FF19
:10177A0022EF703E90FC32E4F090FC32E0FE90FCE6
:10178A007DE0FDC3EE9D502190FC32E075F0F1A49E
:10179A002472F58274F335F0F583E4F090FC32E0BC
:1017AA00FE0E90FC32EEF080D090FC32E4F07582AE
:1017BA00002290FC21E0FE601DBE061E90FC32E075
:1017CA00601890DF3BE0FEBE1302800E90FC21748D
:1017DA0007F07582ED227582ED2290FC32E075F0F9
:1017EA00F1A42472FD74F335F0FE8D828E83E060DD
:1017FA000A90FC467418F07582FE228D828E8374DC
:10180A00FFF090FC32E075F0F1A42472FD74F33518
:10181A00F0FE0DBD00010E7C0090F55DE0FAA3E03C
:10182A00FB8A138B148C158F037F008B168F178DF1
:10183A00828E838CF0C007C00312580DD003D007E4
:10184A0090FC8BE0FE20E30302190590FC32E07560
:10185A00F0F1A42472FD74F335F0FE0DBD00010E03
:10186A0090FC5DEBF0EFA3F08D828E8312552BAEC8
:10187A008290F55CEEF090FC8BE0FF530704BF0406
:10188A003F90FC32E075F0F1A42472FD74F335F058
:10189A00FF0DBD00010F8E037C0090FC8BE0FA5314
:1018AA0002F090FC61EDF0EFA3F090FC63EBF0EC3A
:1018BA00A3F090FC65EAF08D828F83125565803B18
:1018CA0090FC32E075F0F1A42472FD74F335F0FF58
:1018DA000DBD00010F7C0090FC8BE0FB5303F090E0
:1018EA00FC68EDF0EFA3F090FC6AEEF0ECA3F09048
:1018FA00FC6CEBF08D828F831255AE90FC32E07552
:10190A00F0F1A42472FE74F335F0FF90F55CE0FD6B
:10191A008E828F83F090FC32E0FF0F90FC32EFF062
:10192A0090FC7DE0FEEFB5060590FC32E4F075828E
:10193A000022AF83E58290F55FF0EFA3F090FC21DF
:10194A00E0FF6014BF0102800F905B3D12453390A7
:10195A00FC21E0F58212457512159C90FC2AE4F0F0
:10196A00A3F090FC2AE0FEA3E0FF8E828F83121A76
:10197A003E90DF3BE0FFBF0DF890DF3AE0FF5307F0
:10198A007FBF6000402790FC2AE0FEA3E0FF0EBE66
:10199A0000010F90FC2AEEF0EFA3F0D29190000A1A
:1019AA00125224C29190000A12522480B590FC214E
:1019BA007402F090FC47E0FCA3E0FDA3E0A3E090F2
:1019CA00FC2CECF0EDA3F090F55FE0FEA3E0FF90B5
:1019DA00FC30EEF0EFA3F02290FC21E4F090FC47FB
:1019EA00E0FCA3E0FDA3E0A3E090FC2CECF0EDA367
:1019FA00F02290FC217404F090FC47E0FCA3E0FD87
:101A0A00A3E0A3E090FC2CECF0EDA3F02290FC21E3
:101A1A007405F090FC34E4F0A3F090FC47E0FCA3DA
:101A2A00E0FDA3E0A3E090FC2CECF0EDA3F07582BE
:101A3A0000021582AF83E58290F561F0EFA3F09082
:101A4A00F561E0FEA3E0FFEE2400F582EF34F0F545
:101A5A0083E0FF7E008F828E830214EAAF83E582E1
:101A6A0090F563F0EFA3F090F563E0FEA3E0FF903A
:101A7A00F370EEF0EFA3F0222290FC2AE0FEA3E03E
:101A8A00FF0EBE00010F90FC2AEEF0EFA3F0C3EEAA
:101A9A009470EF9403400790FC2AE4F0A3F090FCC2
:101AAA002AE0FEA3E0FFEE2400F582EF34F0F5838E
:101ABA00E0F58222C021C0E0C0F0C082C083C00726
:101ACA00C006C005C004C003C002C001C000C0D027
:101ADA0075D00090FC1DE02401F0A3E03400F090E2
:101AEA00FC22E0FEA3E0FF90FC1DE0FCA3E0FDEC7D
:101AFA00B5060BEDB5070790FC1DE4F0A3F090FCCA
:101B0A001DE0FEA3E0FFBE0005BF0002800BBE0180
:101B1A0005BF00028068021C8090FC1DE0FEA3E065
:101B2A008E077E00AC9C7D00EC4206ED420790FCDD
:101B3A002EEEF0EFA3F090FC2AE0FEA3E0FF0EBE2B
:101B4A0000010F90FC2AEEF0EFA3F090FC28E0FCD5
:101B5A00A3E0FDC3EE9CEF9D400790FC2AE4F0A3AE
:101B6A00F090DF3BE0FFBF1303021D7B90FC2AE0ED
:101B7A00FEA3E0FF8E828F83121A3E021D7B90FC29
:101B8A0021E0FFBF05028003021D7B90001912525B
:101B9A002490F567741CF090FC2AE0FEA3E090F50F
:101BAA0068EEF090FC2AE0A3E090F569F090F56AFF
:101BBA007442F090F56B744CF090F56C7441F090AF
:101BCA00F56D7448F090F56E7442F090F56F744CB0
:101BDA00F090F5707441F090F5717448F090F572D8
:101BEA007442F090F573744CF090F5747441F0906F
:101BFA00F5757448F090F5767442F090F577744C68
:101C0A00F090F5787441F090F5797448F090F57A8F
:101C1A007442F090F57B744CF090F57C7441F0902E
:101C2A00F57D7448F090F57E7442F090F57F744C1F
:101C3A00F090F5807441F090F5817448F090F58247
:101C4A007420F090FC36741CF0E4A3F090FC38F099
:101C5A00A3F090FC3AF0A3F090F56812480F90FCBC
:101C6A0034E0FEA3E0FF0EBE00010F90FC34EEF05C
:101C7A00EFA3F0021D7B90FC21E0FFBF0302806509
:101C8A00BF04028008BF05028003021D7B90FC2C62
:101C9A00E0FEA3E0FF90FC47E0FAA3E0FBA3E0FC30
:101CAA00A3E0FD8E008F01E4FEFFEAC398FAEB99E8
:101CBA00FBEC9EFCED9FFDC374649AE49BE49CE4F8
:101CCA009D5022905B6B12453390FC217405F09075
:101CDA00FC47E0FCA3E0FDA3E0FEA3E0FF90FC2CA0
:101CEA00ECF0EDA3F090FC33E075F0F1A42472FE61
:101CFA0074F335F0FF8E828F83E0607590001912BD
:101D0A00522490FC33E075F0F1A42472FE74F3358A
:101D1A00F0FF90DF04E05401FDB40100E4332EFD2E
:101D2A00E43FFC8E828F83E090FC36F0E4A3F090CF
:101D3A00FC38F0A3F090FC3AF0A3F08D828C831269
:101D4A00480F90FC33E075F0F1A42472F58274F325
:101D5A0035F0F583E4F090FC33E0FF0F90FC33EFAD
:101D6A00F0BF0200400590FC33E4F0905B89124515
:101D7A0033D0D0D000D001D002D003D004D005D0C7
:101D8A0006D007D083D082D0F0D0E0D02132329072
:101D9A00FC21E4F090FC32F090FC33F090FC2AF045
:101DAA00A3F090FC267453F0E4A3F090FC2874533B
:101DBA00F0E4A3F090FC2EF0A3F090FC2CF0A3F03A
:101DCA0090FC227406F0E4A3F090FC24F0A3F090B7
:101DDA00FC30F0A3F090FC34F0A3F012153090FC24
:101DEA0021E4F0759DDC859E9E439E0443CB102220
:101DFA00021D999022451233A390FC47E4F0A3F008
:101E0A00A3F0A3F0121DFA90F583E4F090F5847420
:101E1A0012F074F8A3F02290FC21E0FFBF00030245
:101E2A00217ABF010302204BBF0203021F49BF03ED
:101E3A000302217ABF040302217ABF050302215B50
:101E4A00BF060122BF40028006BF4102804822C26B
:101E5A00A0C2A4D2A375E10490DF3BE0FFBF01F862
:101E6A0090DF0374E5F090DF047404F090DF0774E8
:101E7A0012F090DF08E4F090DF147410F090DF178E
:101E8A00E0FF74C04FF090FC217441F090F5847427
:101E9A0012F074F8A3F090F583E4F090FC34E0FEBD
:101EAA00A3E0FF90F583E0FDFB7C00C3EB9EEC9F73
:101EBA00505D90DF06EDF0C2A0C2A4D2A375E10482
:101ECA0090DF3BE0FFBF01F8C2A090FC8CE024FF4A
:101EDA0092A4E06401FF24FF92A375E10290DF3B24
:101EEA00E0FFBF0DF890000212522490F584E0FE44
:101EFA00A3E0FF90F583E02EFEE43FFF90DF3AE097
:101F0A00FD8E828F83F090F583E02401F0808CC2ED
:101F1A00A0C2A4D2A375E10490DF3BE0FFBF01F8A1
:101F2A0090FC34E0FEA3E08E3375340090F584E033
:101F3A00F535A3E0F536753201758243022E84E544
:101F4A000E700302203990FC45740DF0AF9A74FEAE
:101F5A005FF59AE50E20E40302203990FC21740310
:101F6A00F090FC1FE0FEA3E08E82121582905B9730
:101F7A0012453390FC1FE0FEA3E0FF8E828F83128E
:101F8A00459090F811E025E0FEE42412FFEE34F8C3
:101F9A00FE8F828E8312453390F811E0FFB4010060
:101FAA00E433FF90F583F0EF2416FDE434FCFE8D54
:101FBA00828E83E0707290DF04E0FE30E0378F0695
:101FCA00EE2EFDE42412F582ED34F8F583E0FE8E60
:101FDA00337534008F06EE2EFDE42412FEED34F83C
:101FEA00FD74012EF535E43DF536753201758242F0
:101FFA00122E84802290DF02E0FE8E33E4F534EF65
:10200A002FFEE42412FFEE34F8FE8F358E36753239
:10201A0001758242122E8490F583E0FF2416F58220
:10202A00E434FCF5837401F0AF0E74EF5FF50ED261
:10203A000010AF02C200750E00A20092AF439A01CF
:10204A0022E50E700302214990FC45740DF0AF9A07
:10205A0074FE5FF59AE50E20E40302214990F81117
:10206A00E0FF90F583B40100E433F0905BAC1245D5
:10207A003390F583E025E0FEE42412FFEE34F8FE07
:10208A008F828E8312459090F583E025E0FEE4244A
:10209A0012FFEE34F8FE8F828E8312453390F811C8
:1020AA00E0FFB40100E433FF90F583F0EF2416FD5E
:1020BA00E434FCFE8D828E83E0707290DF04E0FED1
:1020CA0030E0378F06EE2EFDE42412F582ED34F867
:1020DA00F583E0FE8E337534008F06EE2EFDE42480
:1020EA0012FEED34F8FD74012EF535E43DF5367532
:1020FA003201758242122E84802290DF02E0FE8E27
:10210A0033E4F534EF2FFEE42412FFEE34F8FE8FA9
:10211A00358E36753201758242122E8490F583E02F
:10212A00FF2416F582E434FCF5837401F0D2001022
:10213A00AF02C200AF0E74EF5FF50EA20092AFD2EB
:10214A000010AF02C200750E00A20092AF439A01BE
:10215A002290FC34E0FEA3E0FF90FC28E0FCA3E020
:10216A00FDC3EE9CEF9D50012290FC217404F022E5
:10217A00E50E70012290FC45740DF0E50E543070A6
:10218A00012290F811E0FFB40100E433FF90F583D7
:10219A00F0EF2416FDE434FCFE8D828E83E06003AA
:1021AA0002223290DF04E0FE30E0378F06EE2EFD89
:1021BA00E42412F582ED34F8F583E0FE8E337534AB
:1021CA00008F06EE2EFDE42412FEED34F8FD7401B4
:1021DA002EF535E43DF536753201758242122E84AC
:1021EA00803590FC77E0E0600A90FC7AE0FDA3E09D
:1021FA00FE800890DF02E0FCFD7E00EF2FFCE42465
:10220A0012FFEC34F8FC8F358C367532018D338E23
:10221A0034758242122E8490F583E0FF2416F582EB
:10222A00E434FCF5837401F0D20010AF02C200AFAF
:10223A000E74CF5FF50EA20092AF2290F7C3E0FDB5
:10224A00A3E0FEA3E0FF90F7C8E0FCBC42028003D3
:10225A00022BE090F7C9E0FC24BE5003022BD2EC1B
:10226A00240A83F582EC244683F583E473D2D24BA5
:10227A0093D2FEB9D7EA235C80C361D2D227A6CD16
:10228A00406578E4588DD2D2D2D2D2D2D237C007A2
:10229A00FD20D2D2D2D2D2D2D2D2D2D2D2D2D2D29B
:1022AA00D2D2D2D2D2D2D2D2D2D2D2D2D2FB352B1F
:1022BA002B23252B2324242425252525262B2B29AE
:1022CA0029292A2A2A2A28292B2B2B2B2B2B2B2B61
:1022DA002B2B292A2B2B2B2B2B2B2B2B2B2B2B2B47
:1022EA002B2B2B2B2B2B2B2B2B2B2B2B2B2B2B223D
:1022FA0023C007C006C00512159CD005D006D0071A
:10230A0090FC217440F08D828E838FF0125A45FC26
:10231A007B0090FC34ECF0EBA3F090F7E9EDF0EEE3
:10232A00A3F0758201124285022BE090FC21E4F0B1
:10233A0090F7E9EDF0EEA3F0758201124285022BC7
:10234A00E090FC21E06009905BC6124533022BE065
:10235A008D828E838FF0125A45FC7B0090F586ECB5
:10236A00F0EBA3F08D828E83A3E0FAE4F92CFCEA69
:10237A003BFB90F586ECF0EBA3F08D828E83A3A352
:10238A00A3A3E0FA8A0889098D828E83A3A3A3A353
:10239A00A3E0FAE42508F508EA3509F50990FC1ADC
:1023AA00E4F0A3F074062DF9E43EFA90FC36ECF062
:1023BA00EBA3F090FC38E4F0A3F090FC3AE508F0C7
:1023CA00E509A3F089828A83C007C006C0051248BE
:1023DA000FAC82D005D006D0078D828E838FF0ECA9
:1023EA001258AE90F7E9EDF0EEA3F07582011242B1
:1023FA0085022BE08D828E838FF0125A4590FC7AEB
:10240A00F0E4A3F08D828E83A3E0FB7C0090FC7A3B
:10241A00E0F9A3E0FA90FC7AEC29F0EB3AA3F09009
:10242A00FC7AE0A3E090FC7AE0F5F0A3E045F060E6
:10243A004B90FC777401F090FC78E0A3E090FC7874
:10244A00E0F5F0A3E045F0704712473C90FC7AE0D3
:10245A00FBA3E0FC90FC78EBF0ECA3F090FC78E0B6
:10246A00FBA3E090DF02EBF090DF04E0FC74FC5C7D
:10247A00F0E0FC74024CF01246DC801490FC77E425
:10248A00F090FC78F0A3F090FC7AF0A3F012473CAD
:10249A0090F7C8E0FC90F7C9E0F53275357A7536E1
:1024AA00FC7533017534008C82122E84022BE08D68
:1024BA00828E838FF0125A4590FC8BF090F7E9EDEB
:1024CA00F0EEA3F0758201124285022BE090F7E943
:1024DA00748BF074FCA3F0758201124285022BE022
:1024EA0090FC8BE0FC5304F090FC597406F090FCCD
:1024FA005AECF08D828E838FF0C007C006C0051299
:10250A0054D3D005D006D00790F7E9EDF0EEA3F04A
:10251A00758210124285022BE090FC8BE0FC53047A
:10252A00F090FC597404F090FC5AECF08D828E8382
:10253A008FF0C007C006C0051254D3D005D006D00C
:10254A000790F7E9EDF0EEA3F075821012428502CA
:10255A002BE08D828E838FF0125A4590FC8CF0E02E
:10256A00FC74015CF090F7E9EDF0EEA3F0758201DE
:10257A00124285022BE090F7E9748CF074FCA3F008
:10258A00758201124285022BE08D828E838FF012B2
:10259A005A45FC7B008C828B83C007C006C005129B
:1025AA001A66D005D006D00790F7E9EDF0EEA3F051
:1025BA00758201124285022BE090FC21E0601C8D9D
:1025CA00828E838FF074EF1258AE90F7E9EDF0EE39
:1025DA00A3F0758201124285022BE08D828E838FD1
:1025EA00F0125A45FC7B0090F586ECF0EBA3F08DD7
:1025FA00828E83A3E0FAE42CFCEA3BFB90F586EC9E
:10260A00F0EBA3F08D828E83A3A3E0FA90FC1AE488
:10261A00F0A3F074032DF8E43EF990F557ECF0EBD3
:10262A00A3F090F559EAF088828983C007C006C0F2
:10263A00051215A4AC82D005D006D0078D828E83F0
:10264A008FF0EC1258AE90F7E9EDF0EEA3F0758238
:10265A0001124285022BE08D828E838FF0125A4539
:10266A00FB7C0090F586EBF0ECA3F0EB4C600302E8
:10267A00276990FC88E0A3E090FC88E0F5F0A3E0ED
:10268A0045F0601C90DF3BE0FABA1314900028C0B2
:10269A0007C006C005125224D005D006D00780D242
:1026AA0090FC88E0A3E090FC88E0F5F0A3E045F018
:1026BA00606B905BEBC007C006C00512453390FC07
:1026CA0088E0F9A3E0FA89828A8312459090F3722E
:1026DA00E0F58212457590F463E0F582124575D0F3
:1026EA0005D006D00790FC467412F08D828E838F37
:1026FA00F074EC1258AEC291C007C006C00512466B
:10270A00B7D005D006D00790FC21E4F090F7E9EDA8
:10271A00F0EEA3F0758201124285022BE0C291907D
:10272A00FC21E4F08D828E838FF01258AE905BFF0D
:10273A00C007C006C00512453390FC1AE0F9A3E0B1
:10274A00FA89828A83124590D005D006D00790F77D
:10275A00E9EDF0EEA3F0758201124285022BE090BA
:10276A00FC21E0FABA06028061905C0FC007C0063D
:10277A00C005124533D005D006D00790FC46E0FAD2
:10278A00BA121B8D828E838FF074EC1258AE90F7BA
:10279A00E9EDF0EEA3F0758201124285801F90FCEC
:1027AA00467417F08D828E838FF074EF1258AE90B4
:1027BA00F7E9EDF0EEA3F0758201124285C291129B
:1027CA0046B790FC21E4F0022BE074012DF9E43EB7
:1027DA00FA90F55CEBF089828A83C007C006C005CF
:1027EA0012175DAC82D005D006D0078D828E838FFA
:1027FA00F0EC1258AE8D828E838FF0125A45FBECA4
:10280A00603BBBFE028036905C18C007C006C0055C
:10281A00124533D005D006D0078D828E838FF012F1
:10282A005A45F582C007C006C005124575C2911205
:10283A0046B7D005D006D00790FC21E4F090F7E91E
:10284A00EDF0EEA3F0758201124285022BE08D8233
:10285A008E838FF0125A45FB7C0090F586EBF0ECE4
:10286A00A3F0C374F09BE49C5019905B2312453388
:10287A0090F7E97486F074F5A3F075820112428527
:10288A00022BE090FC32E075F0F1A42472F974F3A3
:10289A0035F0FA89828A83E06019905C2512453303
:1028AA0090F7E97486F074F5A3F0758201124285F7
:1028BA00022BE08B0089828A83E8F090FC32E07573
:1028CA00F0F1A42472F974F335F0FA09B900010A97
:1028DA00890A8A0B750C0074012DF9E43EFA8913F2
:1028EA008A147515008B168C17850A82850B8385C9
:1028FA000CF012580D90FC32E0FC0C90FC32ECF01B
:10290A00BC0200400590FC32E4F090F7E97486F0CE
:10291A0074F5A3F0758201124285022BE08D828E36
:10292A00838FF0125A45FC7B0090FC26ECF0EBA357
:10293A00F090FC26E0F9A3E0FAC374709C74039B40
:10294A00402E74022DFBE43EFC8B138C147515008B
:10295A0089168A1790F00075F00012580D90F7E961
:10296A007426F074FCA3F0758202124285022BE0F1
:10297A0090F7E97446F0745CA3F0758208124285F8
:10298A00022BE090FC26E0FBA3E090F7E97400F04C
:10299A0074F0A3F08B82124285022BE0121A837B19
:1029AA00008B83121A3E90FC2AE0FBA3E0FC90F70E
:1029BA00E9EB2400F0EC34F0A3F0758201124285B1
:1029CA00022BE08D828E838FF0125A45FC7B008C9D
:1029DA00828B83C007C006C0051214EAD005D00650
:1029EA00D00790F7E9EDF0EEA3F075820112428567
:1029FA00022BE0758200C007C006C005121582D0FE
:102A0A0005D006D00790F7E9EDF0EEA3F075820144
:102A1A00124285022BE0C007C006C00512159CD0E1
:102A2A0005D006D00790F7E9EDF0EEA3F075820124
:102A3A00124285022BE08D828E838FF0125A45FC5A
:102A4A007B0090FC22ECF0EBA3F090F7E9EDF0EEBE
:102A5A00A3F0758201124285022BE090F7E97422F5
:102A6A00F074FCA3F0758204124285022BE08D8279
:102A7A008E838FF0C007C006C0051244F2D005D07D
:102A8A0006D0078D828E838FF0125A45F582C007D1
:102A9A00C006C005124575D005D006D0078D828EB6
:102AAA00838FF0125A45FC7B008C138B148B15759F
:102ABA0016158B1790FC2175F000C007C006C005DB
:102ACA0012580DD005D006D00790F7E9EDF0EEA325
:102ADA00F0758215124285022BE090FC1DE0FBA3E3
:102AEA00E0FC90FC24EBF0ECA3F090F7E97421F001
:102AFA0074FCA3F0758215124285022BE08D828E3A
:102B0A00838FF0125A45FC7B008C828B83C007C0EE
:102B1A0006C00512193CD005D006D00790F7E9ED9A
:102B2A00F0EEA3F0758201124285022BE090FC4779
:102B3A00E0F9A3E0FAA3E0A3E090FC2CE9F0EAA311
:102B4A00F08D828E838FF0125A45FC90FC21F09012
:102B5A00FC21E0FBEC24FA404DEB2B2B902B6A7303
:102B6A00022B7C022B7C022B7C022B9E022B9E02C8
:102B7A002B8DC007C006C00512159CD005D006D003
:102B8A00078023C007C006C005121A17D005D00651
:102B9A00D0078012758200C007C006C005121582D0
:102BAA00D005D006D00790F7E9EDF0EEA3F07582D4
:102BBA0001124285802090F7E97421F074FCA3F099
:102BCA00758201124285800E90F7E9EDF0EEA3F0CE
:102BDA00758201124285900000222290F7D1E0FF0F
:102BEA00BF013990F7B1E0FEA3E0FF90F7D4E0FC13
:102BFA00A3E0FD90F7B4E0FAA3E0FBEA4B601D8E78
:102C0A00828F83E0F9A3AE82AF838C828D83E9F051
:102C1A00A3AC82AD831ABAFF011B80DF90F7BAE03A
:102C2A0054FDF090DE11E0FF74084FF022AE82AF3F
:102C3A0083E0FD20E703022D308E828F83A3E0FD1F
:102C4A00601DBD0102802ABD0202803BBD030280D5
:102C5A005ABD04028076BDFE03022CF2022D3075A5
:102C6A00370275380090FC4575F00012313D022D8F
:102C7A003090DE00E0FD7C007539288C3A8D828C1C
:102C8A00831231B1022D308E828F83A3A3E0FCA37D
:102C9A00E0FD74062EF582E43FF583E0F539A3E002
:102CAA00F53A8C828D831231B1807B8E048F057B3D
:102CBA000074062EF582E43FF583E0F537A3E0F5CC
:102CCA00388C828D838BF012313D805A90F7B1E0B7
:102CDA00FBA3E0FCA3E0FD753910753A008B828CEA
:102CEA00838DF01231B1803E74022EFEE43FFF7DE7
:102CFA0000754B4E754C5C754D807513048D148EA2
:102D0A00828F838DF01252F0E5828583F045F06060
:102D1A0012D29190012C125224C29190012C12527B
:102D2A0024800375C9839000002290DF2FE4F0907D
:102D3A00DF30F090DF31F090DF00740CF090DF01AB
:102D4A00744EF090DF0274FFF090DF037440F0904D
:102D5A00DF04E4F090DF05F090DF06F090DF0774FF
:102D6A0006F090DF08E4F090DF097424F090DF0A9F
:102D7A00743AF090DF0B74F1F090DF0C74CAF090A3
:102D8A00DF0D74A3F090DF0E7401F090DF0F74234F
:102D9A00F090DF107411F090DF117436F090DF12AA
:102DAA007407F090DF13740FF090DF147418F0902A
:102DBA00DF1514F090DF16746CF090DF177403F0CF
:102DCA0090DF187440F090DF197491F090DF1A7454
:102DDA0056F090DF1B7410F090DF1C74E9F090DF5E
:102DEA001D742AF090DF1EE4F090DF1F741FF0902C
:102DFA00DF237488F090DF247431F090DF257409A2
:102E0A00F090DF2E74C0F090DF07C4F090DF0974F1
:102E1A0025F090DF0A7495F090DF0B7455F090DF7F
:102E2A001A74B6F090DF1B7410F090DF1C74EAF08D
:102E3A0090DF1D742AF090DF1EE4F090DF1F741FEC
:102E4A00F02212537202539E122E4C1245DA12537A
:102E5A00D812310812477B121DFD123137D2AF1238
:102E6A002FDBD291900002125224C29190000A12D2
:0A2E7A0052241242B6121E2180F805
:105AA80043616E6E6F742063616C6C207472616EFA
:105AB800736D69745F6C6F6E67207768696C6520B9
:105AC8004648535320486F7070696E67206F722084
:105AD800616C72656164792070726F636573736954
:105AE8006E67207472616E736D69745F6C6F6E6738
:105AF80021004D41435F74782829207265747572BE
:105B08006E6564206572726F72006E6576657220CC
:105B1800656E74657265642054580046485353781E
:105B28006D6974206D65737361676520746F6F208C
:105B38006C6F6E6700464853532073746174652018
:105B4800656E746572696E672053594E4348494EB5
:105B5800472066726F6D2077726F6E67207374616D
:105B680074650053594E43485F4D41535445522084
:105B78002D3E2053594E43494E474D4153544552AB
:105B88000046485353786D697420646F6E65006EE3
:105B98006574776F726B207061636B6574287379B5
:105BA8006E6329006E6574776F726B207061636B2A
:105BB800657428646973636F766572792900637206
:105BC80061702C20706C6561736520757365204663
:105BD800485353786D6974282920696E7374656118
:105BE80064210064726F706F75742066696E616CF1
:105BF80020776169742100746F74616C2062797414
:105C080065732074783A00756E64657272756E00FB
:105C1800627566666572206572726F720073746968
:105C28006C6C2077616974696E67206F6E20746888
:105C380065206C617374207061636B6574004E4FEE
:0B5C4800204445414C005253544E00D4
:102E8400AF827E017D0090DE0E7405F090FC4574E7
:102E940012F0EE7006ED7003022FD17B107C2790A8
:102EA400DE11E0FA30E00D90FC467401F01BBBFF2C
:102EB400011C80EBEB4C7014D2919003E812522465
:102EC400C2919003E812522490FFFF22BE01317E8A
:102ED4000090DE2A7440F0EFF0E532F0AB337C0072
:102EE400EBF0E534F0C3E533943BE534940040085B
:102EF4007B3B7C007D018021AB33AC347D008019A9
:102F0400C3E5339440E534940040087B407C007D65
:102F1400018006AB33AC347D007480252942D6850C
:102F24002682852783A935AA368A00E8F085268279
:102F3400852783A3E9F0852682852783A3A374DEEE
:102F4400F0852682852783A3A3A3742AF08526828D
:102F5400852783A3A3A3A3A3EBFAF0852682852761
:102F640083A3A3A3A3E054E0F0852682852783A34B
:102F7400A3A3A3A3A3A3E0543F4440F085268285E2
:102F84002783A3A3A3A3A3A3A3E054CFF0E52942DB
:102F9400D6E52942D7E52955D160FAE529F452D17D
:102FA40090DE0E7405F090DE11E0FA74014AF0E54B
:102FB40033C39BF533E5349CF534EB2535F535EC1B
:102FC4003536F53690FC457413F0022E9690FC4588
:102FD4007414F090000022E52270051242B680F7C6
:102FE40022AFBE747F5FF5BE43BE8090DE0B74F7E4
:102FF400F090DE0774FFF090DE09F0438C10AF8C84
:1030040074FE5FF58CD2BD439A02758900C2C57502
:103014008B00C2E843A90243B9028526828527832F
:10302400A3A3A3A3E054E0F0852682852783A3A36A
:10303400A3A3A3A3E0549F4420F08526828527837D
:10304400A3A3A3A3A3A3A3E04408F0852682852712
:1030540083A3A3A3A3A3A3A3E054FC4401F090DEA1
:1030640001E0FF74FE5FF0E4F525F523F524F52275
:1030740090DE0EF090DE107404F090DE13F090F702
:10308400BBE4F090F7BAF090F7AFF0A3F090F7B18B
:103094007488F074F5A3F0E4A3F090F7B4F0A3F00F
:1030A40090F7B6F090F7B7F090F7B8F0A3F090DE91
:1030B4000E7405F090DE107408F090DE13F090DECC
:1030C40012E0FF74014FF090DE15E0FF74014FF041
:1030D40090F7CDE4F090F7CCF090F7C1F0A3F09026
:1030E400F7C374A8F074F5A3F0E4A3F090F7C6F066
:1030F400A3F090F7C8F090F7C9F090F7CAF0A3F0E6
:10310400439A02221246048582288528F005F07429
:1031140001800225E0D5F0FBF529E52875F008A427
:1031240024F9F52674F735F0F52790FC457402F080
:10313400022FE5D29022C29022AFF0AE83E58290B6
:10314400F7D6F0EEA3F0EFA3F090F7BBE06034D233
:10315400919003E8125224C2919003E8125224D2AF
:10316400919003E8125224C2919003E8125224D29F
:10317400919003E8125224C2919003E812522490D1
:10318400FFFF2290F7D6E0FDA3E0FEA3E0FF90F757
:10319400ACEDF0EEA3F0EFA3F090F7AFE537F0E578
:1031A40038A3F090F7BB7401F090000022AF83E5E0
:1031B4008290F7D9F0EFA3F090F7BBE06034D2919E
:1031C4009003E8125224C2919003E8125224D2913F
:1031D4009003E8125224C2919003E8125224D2912F
:1031E4009003E8125224C2919003E812522490FFF3
:1031F400FF2290F7D9E0FEA3E0FF7D0090F7ACEE4C
:10320400F0EFA3F0EDA3F090F7AFE539F0E53AA3C2
:10321400F090F7BB7401F0900000227F007E0290D2
:10322400DE0EE4F090F7AFE0FCA3E0FDC3EC9420E5
:10323400ED940040047B2080068C037F017E0A8B82
:10324400017A00ECC399FCED9AFD90F7AFECF0ED38
:10325400A3F08B05ED603690F7ACE0FAA3E0FBA396
:10326400E0FC8A828B838CF0125A4590DE20F09029
:10327400F7ACE0FAA3E0FBA3E0FC0ABA00010B9070
:10328400F7ACEAF0EBA3F0ECA3F01D80C790DE11DD
:10329400E0FD4EF0EF600590F7BBE4F02290F7BB41
:1032A4007402F07582002290F7B1E0FDA3E0FEA362
:1032B400E0FF90DE11E0FCB40100E433FC20E0F216
:1032C40090DE0EE4F090DE16E0FC7B0090F7B4ECA8
:1032D400F0EBA3F090F7BAE0FC30E11390F7BB7485
:1032E40003F090DE11E0FC74044CF090FFFF229098
:1032F400F7BAE04402F090F7B4E0FBA3E0FCC37437
:10330400209BE49C501CD29190012CC007C006C0A5
:1033140005125224C29190012C125224D005D006D9
:10332400D00790F7B4E0FBA3E0FC8D07EB4C6016EC
:1033340090DE20E0FD8F828E83F0A3AF82AE831BEC
:10334400BBFF011C80E6E52C452D6009852C828598
:103354002D8312148990F7B4E0FEA3E0FFC3EE942A
:1033640020EF9400501DE52A452B6009852A8285AB
:103374002B8312148990DE11E0FF74084FF090F74C
:10338400BBE4F090DE11E0FF74404FF090F7B4E03E
:10339400FEA3E08E82F5832285822E85832F2285EB
:1033A4008230858331227537017538009000257588
:1033B400F04002313DAFF0AE83E58290F7DBF0EEF2
:1033C400A3F0EFA3F090F7DBE0FDA3E0FEA3E0FFA2
:1033D40074022DFDE43EFE8D828E838FF0125A45D9
:1033E400FDA3125A458D2575220122AF827D917E5F
:1033F4005CBF030874EEB513037513048D828E83CA
:10340400A3E090F7DEF0AC1390F7DEE0FBBBFF0225
:10341400803EEBB50723EC700890F7DE74FFF08074
:10342400E71C8D828E83E02DFDE43EFE8D828E832B
:10343400A3E0FB90F7DEF080CF8D828E83E02DFD3C
:10344400E43EFE8D828E83A3E0FB90F7DEF080B82D
:103454008D828E8322AFF0AE83E58290F7DFF0EEAB
:10346400A3F0EFA3F090F7DFE0F53DA3E0F53EA372
:10347400E0F53F7402253DFAE4353EFBAC3F8A8219
:103484008B838CF0125A45F8A3125A45F9893B757F
:103494003C007402B53B06E4B53C0280227407B5D7
:1034A4003B06E4B53C028002804274AF58FE7F00C4
:1034B4008A828B838CF0EE1258AEA3EF1258AE8A38
:1034C400828B838CF0125A45FAA3125A45F5828AEC
:1034D400131233EFAE82AF8390F7E2EEF0EFA3F076
:1034E4008E828F83A3A3E0FE7F00801C89828813D1
:1034F4001233EFAC82AD8390F7E2ECF0EDA3F08CE5
:10350400828D83E0FCFE7F007406253DFBE4353E9E
:10351400FCAD3F8B828C838DF0125A45FCA3125A6A
:1035240045FDC3EC9EED9F50048C068D07EE4F7055
:103534000990DE11E0FD74204DF090F7E2E0FCA369
:10354400E0FD8E398F3A8C828D830231B190DE0E8C
:10355400E4F090DE11E0FF30E40E90F7BBE4F0906D
:10356400DE11E0FE74804EF0EF30E22490DE11E4D0
:10357400F090FC467404F090F7BBE4F0D291900014
:1035840014C007125224C291900014125224D0077E
:1035940090F7BBE0FEBE0319D291900032C007122F
:1035A4005224C291900032125224D00790F7BBE407
:1035B400F090F7BBE06003023891EF20E00302389B
:1035C4009190DE0EE4F090DE16E0FFFE7B407C007E
:1035D4007D40EE601690DE20E0FA8B828C838DF0C5
:1035E4001258AEA3AB82AC831E80E7E540FE20E711
:1035F4000302376474605EFD6015BD200302371E4C
:10360400BD400302372ABD600302374F0238797484
:103614001F5EFF7041AD41BD0002801CBD060280EB
:1036240005BD0826800C90004075F0401234590204
:1036340038791233AA023879753702753800905CEC
:103644006F75F08012313D02387990004075F0407A
:103654001244F1023879BF0145AD41BD0002800535
:10366400BD0A268012753702753800905C6F75F0BC
:103674008012313D023879753701753800905C72DB
:1036840075F08012313D02387990DE11E0FD74202E
:103694004DF090004075F0401244F1023879BF02B9
:1036A40036AD41BD00028008BD1203023879801294
:1036B400753702753800905C6F75F08012313D02E9
:1036C400387990DE11E0FD74204DF090004075F0E3
:1036D400401244F1023879BF032BE4B54112753727
:1036E40002753800905C6F75F08012313D023879B4
:1036F40090DE11E0FD74204DF090004075F0401212
:1037040044F102387990004075F0401244F190DEA3
:1037140011E0FD74204DF002387990DE11E0FD7463
:10372400204DF0023879E52E452F6013123735808D
:103734000BC02EC02F90004075F0402202387990C3
:10374400004075F0401238A802387990DE11E0FD8F
:1037540074204DF090004075F0401244F102387925
:1037640074605EFD6015BD2003023830BD40030265
:103774003844BD6003023867023879741F5EFF70F5
:1037840048AE41BE0103023879BE0303023879BE54
:103794000502800BBE0703023879BE091780099021
:1037A400DE00E542F002387990004075F0401233B3
:1037B400B902387990004075F0401244F190DE115E
:1037C400E0FE74204EF0023879BF0129AE41BE01FB
:1037D40003023879BE0303023879BE110302387933
:1037E40090004075F0401244F190DE11E0FE742028
:1037F4004EF0023879BF0220AF41BF01028076BF8C
:103804000302807190004075F0401244F190DE1183
:10381400E0FF74204FF0805D90DE11E0FF74204FD4
:10382400F090004075F0401244F1804990004075DA
:10383400F0401244F190DE11E0FF74204FF0803527
:10384400E52E452F601212384F800BC02EC02F90EA
:10385400004075F04022801D90004075F040123801
:10386400A8801290DE11E0FF74204FF090004075A4
:10387400F0401244F190DE11E0FF74404FF0E54651
:103884004547700990DE11E0FF74084FF090F7BBD4
:10389400E0FFBF010312321F90F7BBE0FFBF02033A
:1038A4000232AB22AFF0AE83E58290F7E4F0EEA3F0
:1038B400F0EFA3F090F7E4E0FDA3E0FEA3E0FF8DBA
:1038C400828E838FF0125A45FC20E703023AC374B8
:1038D400012DFAE43EFB8F048A828B838CF0125A0A
:1038E40045FC6025BC01028032BC02028043BC035B
:1038F40003023971BC04030239A6BCFD030239C3B7
:10390400BCFE03023A7D023B2975370275380090EC
:10391400FC4575F00012313D023B2990DE00E0FCCD
:103924007B007539288B3A8C828B831231B1023B30
:103934002974022DFAE43EFB8F048A828B838CF077
:10394400125A45FAA3125A45FB74062DF8E43EF9BF
:103954008F04888289838CF0125A45F539A3125A50
:1039640045F53A8A828B831231B1023B298D028E4E
:10397400038F048A488B498C4A74062DF8E43EF977
:103984008F04888289838CF0125A45F537A3125A22
:1039940045F538854882854983854AF012313D02D0
:1039A4003B2990F7B1E0FAA3E0FBA3E0FC753910E2
:1039B400753A008A828B838CF01231B1023B2974F0
:1039C400042DFAE43EFB8F048A828B838CF0125A16
:1039D40045F8A3125A45F9B80477B900747434440D
:1039E4005D606EC002C003C00474062DF8E43EF9A5
:1039F4008F04888289838CF0125A45F548A3125AA1
:103A040045F549905D34E493FC8C4B754C00C3E55B
:103A14004B9548E54C9549D004D003D002501A8503
:103A24004B39854C3A905D34C004C003C002123156
:103A3400B1D002D003D004801885483985493A9022
:103A44005D34C004C003C0021231B1D002D003D02F
:103A5400048A828B838CF0125A45FAA3125A45FBCE
:103A6400BA0505BB00028003023B29E4F539F53AA7
:103A74009000001231B1023B2974022DFAE43EFB9E
:103A84008F0490FC4B7474F0745CA3F07480A3F006
:103A94007513047514008A828B838CF01252F0E53E
:103AA400828583F045F06012D29190012C12522449
:103AB400C29190012C125224806B75C98380669048
:103AC400F7D1E0FCBC015674022DFDE43EFE8D826C
:103AD4008E838FF0125A45FDA3125A45FE90DE0ED6
:103AE400E4F090DE16E0FF7C007512088F828C8370
:103AF400C007C006C005C004125270D004D005D05F
:103B040006D007EF4C601690DE20E0FB8D828E839A
:103B1400F0A3AD82AE831FBFFF011C80E690F7BA0D
:103B2400E054FDFFF09000002290F7CCE0FF30E17C
:103B34000A90FC467405F090FFFF2290DE0E740597
:103B4400F090DE16E0FF8F4D754E0090DE17E0FC1E
:103B5400E4254DF54DEC354EF54E90F7CAE0FCA347
:103B6400E0FD4C705890F7C6E4F0A3F090DE2AE034
:103B740090F7C8F090DE2AE090F7C9F090DE2AE0D2
:103B8400FD7C0090F7CAEDF0ECA3F090DE2AE0FA99
:103B9400E4FB2DFDEA3CFC90F7CAEDF0ECA3F0E564
:103BA4004D24FCF54DE54E34FFF54EC374049D746D
:103BB400029C500990F7CA7404F003A3F0E5295558
:103BC400D16012D291900014125224C29190001428
:103BD40012522480E890F7C3E0FBA3E0FCA3E0903A
:103BE400F7C6E0FAA3E0FFEA2BFBEF3CFC74802568
:103BF4002942D685268285278374DEF08526828530
:103C04002783A3742AF0852682852783A3A38C07A0
:103C1400EFF0852682852783A3A3A3EBF085268274
:103C2400852783A3A3A3A3A3A3A3E0543FF08526DE
:103C340082852783A3A3A3A3A3A3A3E054CF441003
:103C4400F074052526FEE43527FF90DE16E0FD8E90
:103C5400828F83EDF074042526FEE43527FF90DE81
:103C640017E08E828F83541FF5F0E054E045F0F0A6
:103C740090F7C6E0FEA3E0FFEE254DFCEF354EFDC8
:103C8400C374049C74029D500B7404C39EF54D745C
:103C9400029FF54EC37440954DE4954E502890FC18
:103CA400467406F090DE14E0FD74FE5DF0751204B7
:103CB400900005125270751210854D82854E831244
:103CC400527090FFFE22E52942D6E52942D7E54D00
:103CD4002EFEE54E3FFF90F7C6EEF0EFA3F0E52988
:103CE40055D160FAE529F452D190F7C6E0FEA3E07D
:103CF400FF90F7CAE0FCA3E0FDC3EE9CEF9D402CCF
:103D040090F7CCE04402F090F7CAE4F0A3F090DE20
:103D14000E7405F0AE2374BF5524FF8E238F2490B8
:103D2400DE14E0FF74FE5FF09000012290DE0E745A
:103D340005F0AE2374BF5524FF8E238F2490DE1428
:103D4400E0FF74FE5FF09000002290F7CCE0FF20CB
:103D5400E1012290F7C3E0FDA3E0FEA3E0FF90F7AA
:103D6400E7EDF0EEA3F090F7C8E0F55674FFB55612
:103D740002800302425D90F7C9E0FBBB8000500360
:103D840002423FEB246C500302423FEB2480FA24AE
:103D94000A83F582EA241883F583E473C85DF3305B
:103DA4001047687FB8A13F3F3F3F2053B3CD3FF258
:103DB4003D3E3F403F4040404040424242424141FC
:103DC400414142418D828E838FF0125A45FA74012B
:103DD4002DF551E43EF5528A5475550090F7CAE525
:103DE40054F0E555A3F0855182855283E0F5537470
:103DF400012551F556E43552F557A9538902E4F9E2
:103E04002554F554EA3555F55590F7CAE554F0E5CF
:103E140055A3F0855682855783E0F88551828552F3
:103E240083A3A3884F8950E0FAE4254FF54FEA3580
:103E340050F550854F3585503690F7C8E0FA90F725
:103E4400C9E0F5328554338555348A82122E849024
:103E5400F7CAE4F0A3F00242558D828E838FF012EC
:103E64005A45FA8D828E83A38A4F755000E0FA7406
:103E7400022DF556E43EF5578A018902E4254FF5F3
:103E84004FEA3550F550A84FAA5090F7CEE8F0EA23
:103E9400A3F090F7C6E0F9A3E0FAE924FEF54FEAAF
:103EA40034FFF550854F54855055E5544555603DD4
:103EB40090F7CEE0F551A3E0F55274012551F9E4F1
:103EC4003552FA90F7CEE9F0EAA3F0855682855789
:103ED40083E0FAA385825685835785518285528370
:103EE400EAF0155474FFB55402155580BD90F7C817
:103EF400E0FA90F7C9E0F5327535CA7536F77533CF
:103F0400027534008A82122E8402425590F7CCE066
:103F1400FA20E23C8D828E838FF0125A45FA8D820C
:103F24008E83A38A4F755000E0FA90F7E774022D50
:103F3400F0E43EA3F08A018902E4F9254FF54FEA43
:103F44003550F550A84FAA5090F7CEE8F0EAA3F008
:103F540090F7CAE0F9A3E0FA894F8A50C3744095F8
:103F64004FE495505006754F40755000E9C3954F86
:103F7400F9EA9550FA90F7CAE9F0EAA3F090F7E766
:103F8400E0F554A3E0F555854F56855057E5564561
:103F940057603D90F7CEE0F551A3E0F5527401254A
:103FA40051F9E43552FA90F7CEE9F0EAA3F08554DA
:103FB40082855583E0FAA385825485835585518291
:103FC400855283EAF0155674FFB55602155780BD25
:103FD40090F7C8E0FA90F7C9E0F5327535CA75363E
:103FE400F77533027534008A82122E84024255D248
:103FF40091900002C007C006C005125224C29190DD
:104004000002125224D005D006D00790F7C8E0FA77
:1040140090F7C9E0F53290F7C6E0F533A3E0F53444
:104024008D358E368A82122E840242557535797505
:10403400365C8B3275330D753400855682122E84AE
:1040440002425590FC47E0F8A3E0F9A3E0A3E0881E
:104054003589368B32753304753400855682122EB9
:104064008402425575355C75365C8B327533137535
:104074003400855682122E8402425590F7C6E0F52C
:1040840033A3E0F5348B328D358E36855682122E6D
:10409400849000C8125224124613024255753553B7
:1040A40075365C8B32753309753400855682122E51
:1040B400840242558D828E838FF0125A45FC74011E
:1040C4002DF9E43EFABC0202800ABC03028021BC42
:1040D4000429800DC002C0011246DCD001D0028048
:1040E4001AC291C002C00112473CD001D002800B19
:1040F400C002C0011246FDD001D00290F7C8E0FC16
:1041040090F7C9E0F53290F7C6E0F533A3E0F53453
:1041140089358A368C82122E8402425590F7CA74ED
:1041240001F0E4A3F07535367536DF90F7C8E0FC8E
:1041340090F7C9E0F53290F7CAE0F533A3E0F5341F
:104144008C82122E8490F7CAE4F0A3F00242558DBB
:10415400028E048C017C0090FC4B7487F0745CA389
:10416400F07480A3F07513098C148A8289838CF00F
:10417400C007C006C0051252F0E5828583F0D00561
:10418400D006D00745F0600302425575C98090F708
:10419400C8E0FC90F7C9E0F53290F7C6E0F533A328
:1041A400E0F5348D358E368C82122E840242559081
:1041B400FC45E4F090FC46F090F7E9EDF0EEA3F056
:1041C40075820212428502425590F7CAE4F0A3F0C8
:1041D40090F7C8E0FC90F7C9E0F5327533107534F8
:1041E400007535F07536138C82122E8480638D82AF
:1041F4008E838FF0125A45FC74012DF9E43EFABC0B
:104204000002800BBC010F90FC8E7401F0800C90B6
:10421400FC8EE4F0800590FC8EE4F090F7C8E0FC9E
:1042240090F7C9E0F53290F7C6E0F533A3E0F53432
:1042340089358A368C82122E84801690F7C6E0F572
:1042440033A3E0F5348B328D358E36855682122EAB
:104254008490F7CCE054FDF022E5304531601985B7
:104264003082853183121489AE82AF83EE4F701091
:1042740090F7CCE054FDF02290F7CCE054FDFFF031
:1042840022E58290F7EBF090F7CCE054FDF090F744
:10429400C8E0FF90F7C9E0F53290F7EBE0FE8E330B
:1042A40075340090F7E9E0F535A3E0F5368F820226
:1042B4002E84E52330E01175220274FE5523FEAFEF
:1042C400248E238F2443BE01E5235406602F90FCE3
:1042D40045740AF075220374FD5523FEAF248E2322
:1042E4008F2490DE01E0FF74044FF0900008125216
:1042F4002490DE01E0FF74FB5FF075220190DE0E76
:10430400E4F090DE11E0FF30E21A90DE11E0FF7479
:10431400DB5FF090F7AFE4F0A3F090F7B4F0A3F014
:1043240090F7BBF090DE0E7405F090DE11E0FF30E4
:10433400E52090DE11E0FF74CF5FF090FC46740836
:10434400F090F7C1E4F0A3F090F7C6F0A3F090F773
:10435400CDF090DE14E0FF30E62090DE14E0FF7430
:104364009F5FF090FC467408F090F7C1E4F0A3F06E
:1043740090F7C6F0A3F090F7CDF0E52320E20574A2
:1043840004B52214122FE590FC45740BF074FB5510
:1043940023FEAF248E238F24E52330E411123551FC
:1043A40074E75523FE740F5524FF8E238F24E524D0
:1043B40030E65490FC45740CF0123B2DAE82AF8372
:1043C400BEFE41BFFF3E90F7EC7406F0E4A3F0900C
:1043D400F7C8E0FF90F7C9E0F5327535EC7536F7AC
:1043E4007533027534008F82122E8490F7C8E0FF73
:1043F4007535EC7536F77532017533027534008FF7
:1044040082122E84123D4EE52354E07006E52454B6
:10441400BD602990FC467409F0751208900044129E
:10442400527085238285248375121012527074E0B1
:104434005523FE74BD5524FF8E238F2422C0E0C073
:1044440082C083C007C006C005C004C0D075D000B8
:10445400E5BE30E6FB90DE06E0FF7E00E523420782
:10446400E52442068F238E2490DE02E0FDE4CDC4D1
:10447400CD6DCD54F0CD6DFCED4207EC42068F239B
:104484008E2490DE04E025E0FCE4FD4207EC4206C5
:104494008F23EEF52430E11290F7CCE054FEF0AE19
:1044A4002374FD5524FF8E238F24758B00C2E8D01E
:1044B400D0D004D005D006D007D083D082D0E0324B
:1044C400C0E0C007C0D075D000E5BE30E6FBC2AF87
:1044D400E58930E703752203AFBE74FC5FF5BE7552
:0E44E4008900C2C5D2AFD0D0D007D0E03222BE
:105C530053444343763335300059415244535449F6
:105C6300434B4F4E45207230363036000000000063
:105C7300005253544E00554E494D504C454D454EE0
:105C83005445440052455345545F4E4F570012014B
:105C9300000200000020501D5B60010101020301AE
:105CA3000A06000200000020010009022000010191
:105CB3000080FA0904000002FFFFFF0007058502C8
:105CC30040000107050502400001040309042803FD
:105CD30047007200650061007400200053006300F8
:105CE3006F007400740020004700610064006700C7
:105CF3006500740073001E03590041005200440004
:105D0300200053007400690063006B0020004F0003
:105D13006E0065000A033000300039006100120391
:105D23004D00530046005400310030003000FD00A8
:105D3300FF28000000000104000100000000000033
:105D430000000157494E5553420000000000000077
:095D530000000000000000000047
:1044F200AF83E58290F7EEF0EFA3F090F7EEE0FEE7
:10450200A3E0FF7C007D008E028F038A828B83E012
:10451200F9A3AA82AB83E960070CBC00EE0D80EB25
:104522007532F08C338D348E358F367582FE022EC5
:1045320084AF83E58290F7F0F0EFA3F090F7F0E01C
:10454200FEA3E0FF7C007D008E028F038A828B83B4
:10455200E493F9A3AA82AB83E960070CBC00ED0DDA
:1045620080EA8E358F367532F08C338D347582FE4B
:10457200022E84E58290F7F2F07535F27536F77502
:1045820032F17533017534007582FE022E84AF83D9
:10459200E58290F7F3F0EFA3F07535F37536F77512
:1045A20032F27533027534007582FE022E84AF82B8
:1045B200AE83ADF0FC90F7F5EFF0EEA3F0EDA3F0D3
:1045C200ECA3F07535F57536F77532F3753304756E
:0845D20034007582FE022E8404
:0314E400750D0083
:1045DA007EF97FF78FD57EF97FF78ED47E017FF83B
:1045EA008FD37E017FF87F008ED28F137514188FB8
:1045FA001590F7F975F0000257EE7403B50D0475BE
:10460A0082FF22850D82050D2290DF46E0FFBFF072
:10461A000E90DF47E0FFBF0D0690DF487469F0C2D5
:10462A00AF759A0075B80075A80012313AAFBE741A
:10463A007F5FF5BE75D69FC29102000022125862B2
:10464A00AC82AD83AEF0FFC004C005C006C00790BF
:10465A0037BD75F086743D1256EAAC82AD83AEF072
:10466A00FFE58124FCF581E4C0E0C0E074C0C0E04D
:10467A007441C0E08C828D838EF0EF125982AC8235
:10468A00AD83AEF0FFE58124FCF5818C828D838EAB
:10469A00F0EF125875AC82AD83AEF090DF09EEF000
:1046AA008D0390DF0AEBF090DF0BECF02275E1044A
:1046BA0090DF3BE0FFBF01F890FC1CE0F5E190FCC5
:1046CA001CE0FFBF04012290DF3BE0FFBF01028034
:1046DA00ED2290FC1CE0FFBF02012290DF13E0FFF5
:1046EA0074F05FF0E0FF740F4FF090FC1C7402F05E
:1046FA00024B9290FC1CE0FFBF03012290DF13E003
:10470A00FF74F05FF0E0FF740A4FF090FC1C740332
:10471A00F090FC8CE024FF92A0C2A490FC8CE06490
:10472A0001FF24FF92A375E10390DF3BE0FFBF1373
:10473A00F82290FC1CE0FFBF04012290DF13E0FF87
:10474A0074F05FF0AF9174EF5FF591C2A0C2A4D28A
:10475A00A375E10490DF3BE0FFBF01F8AF9B74FC57
:10476A005FF59BAFE974EF5FF5E990FC1C7404F008
:10477A002290FC1FE4F0A3F090FC12F0A3F090FC4E
:10478A0014F0A3F053C6C7759D00859E9E439E04F0
:10479A0085A9A943B90190FC1C7404F0751300752E
:1047AA001400F51590F81275F0001257EE122D3418
:1047BA00D2A87591D175E900750E00439A01C2A07D
:1047CA00C2A4D2A375E10490DF3BE0FFBF01F82247
:1047DA007E007F00C3EE94DCEF9405502490DF3C0A
:1047EA00E0FD5450600490000122900032C007C0DE
:1047FA0006125252D006D00774322EFEE43FFF80D2
:10480A00D390000022AF83E58290FC3CF0EFA3F046
:10481A0090FC3EE4F090DF02E0FF90DF3BE0FEBE5A
:10482A00131EA291B3920190FC8EE0FEA201E43322
:10483A005206EE24FF9291C0071242B6D00780DAE0
:10484A00C29190FC8AE4F090FC38E0FDA3E0FE906F
:10485A00FC80EDF0EEA3F090FC3AE0FBA3E0FC90C4
:10486A00FC86EBF0ECA3F090FC36E0F9A3E0FA90BA
:10487A00FC82E9F0EAA3F090FC84E9C39BF0EA9C8D
:10488A00A3F090FC84E0FBA3E0FC8D138E148B82D2
:10489A008C83C007C006C005C002C0011258C9AB4C
:1048AA0082AC83D001D002D005D006D00790FC8814
:1048BA00EB29F0EC3AA3F0E94A705D90FC3CE0FB8E
:1048CA00A3E0FC8B828C83E0F8880F75100090FCC3
:1048DA0036E50FF0E510A3F090DF04E0F85300038B
:1048EA00B800028018B8010280030249B490FC366D
:1048FA007401250FF0E43510A3F00249B490FC3C92
:10490A0074012BF0E43CA3F090FC36E0FBA3E0FC3E
:10491A0090DF02EBF00249B490DF04E0FC53040399
:10492A00BC00028046BC010280030249B490FC3CF0
:10493A00E0FBA3E0FC90FC3FE9F0EAA3F090FC4125
:10494A007401F0E4A3F08B828C83C007C002C0011B
:10495A001251CFD001D002D00790FC3CE0FBA3E07B
:10496A00FC89008B828C83E8F0803FED4E603690A4
:10497A00FC88E0FDA3E090DF02EDF090DF04E0FEAA
:10498A0074FC5EF090FC88E0FDA3E0FEC374FF9D1A
:10499A00E49E500990DF04E0FE74024EF090FC8A17
:1049AA007401F0800590DF02E9F0D2A890FC8BE058
:1049BA00FE20E303024AE290DF04E0FE530603BE50
:1049CA00010690FC3E7401F090FC3EE0FE90FC3C37
:1049DA00E0FCA3E0FDEE2CFAE43DFB90FC36E0F8A7
:1049EA00A3E0F990FC5DE8F0E9A3F08A828B83C02A
:1049FA0007C006C005C00412552BAA82AB83D00497
:104A0A00D005D006D00790FC8BE0F9530104B90415
:104A1A0048C007EE2CF8E43DF990FC8BE0FF530701
:104A2A00F090FC61E8F0E9A3F090FC63EAF0EBA3F4
:104A3A00F090FC65EFF088828983C007C006C00544
:104A4A00C004C003C002125565D002D003D004D0FE
:104A5A0005D006D007D0078046C007EE2CF8E43D03
:104A6A00F990FC8BE0FF5307F090FC68E8F0E9A3AB
:104A7A00F090FC6AEAF0EBA3F090FC6CEFF088820D
:104A8A008983C007C006C005C004C003C00212550E
:104A9A00AED002D003D004D005D006D007D007EE9E
:104AAA00601E90FC8BE0FE5306F0BE50098C828D8E
:104ABA00837410F080228A068C828D83EEF080182F
:104ACA0090FC8BE0FE5306F0BE500890DF02741093
:104ADA00F0800590DF02EAF090FC3CE0FDA3E0FEE6
:104AEA0090FC18EDF0EEA3F090FC7EE4F0A3F090B9
:104AFA00FC8CE024FF92A0C2A490FC8CE064012408
:104B0A00FF92A375E1037D607EEA90DF3BE0FCBC87
:104B1A001302802F1DBDFF011EED4E6026A291B328
:104B2A00920190FC8EE0FCA201E4335204EC24FFD3
:104B3A009291C007C006C0051242B6D005D006D071
:104B4A000780C790FC8EE0FC1392019291ED4E70A3
:104B5A000690FC467413F090DF3BE0FEBE131EA2E3
:104B6A0091B3920190FC8EE0FEA201E4335206EE6C
:104B7A0024FF9291C0071242B6D00780DAC2919000
:104B8A00DF02EFF075820122D2A8751300751400B6
:104B9A0075150290F81275F0001257EE90FC12E4A7
:104BAA00F0A3F090FC14F0A3F090FC16F090FC1720
:104BBA0004F090F811E4F0AF9B74FC5FF59BAFE949
:104BCA0074EF5FF5E9C2A090FC8CE024FF92A4E0A8
:104BDA006401FF24FF92A375E10290DF3BE0FFBF6F
:104BEA000DF84391102290FC8D7401F02290FC8DF7
:104BFA00E4F022C021C0E0C0F0C082C083C007C078
:104C0A0006C005C004C003C002C001C000C0D07500
:104C1A00D00090FC457411F0C28990DF3BE0FFBFE1
:104C2A000D028003024D4F90FC8EE0FF1392029218
:104C3A009190FC77E0E0602A90FC78E0FEA3E0FF28
:104C4A0090FC78E024FFFCA3E034FFFD90FC78ECB4
:104C5A00F0EDA3F074FF2F400990DF04E0FF74FC2D
:104C6A005FF090FC1C7402F090F811E025E0FEE47D
:104C7A002412FFEE34F8FEE075F002A42412FC744C
:104C8A00FC35F0FD8C828D83E0FAA3E0FB74012AE7
:104C9A00F8E43BF98C828D83E8F0E9A3F0EA2FF57A
:104CAA0082EB3EF583E5D9F090F811E075F002A4A5
:104CBA002412F58274FC35F0F583E0FEA3E0FFC30D
:104CCA009402501A90F811E075F002A42412F582A9
:104CDA0074FC35F0F583E0FEA3E0FF4E701A90F8FD
:104CEA0011E0FF75F002A42412F58274FC35F0F588
:104CFA008374FFF07401A3F090FC78E0A3E090FCC9
:104D0A0078E0F5F0A3E045F06003024F0C90FC77E1
:104D1A00E0E07003024F0C90FC7AE0FEA3E0FF9003
:104D2A00FC78EEF0EFA3F090FC78E0FEA3E090DFD1
:104D3A0002EEF090DF04E0FF74FC5FF0E0FF740223
:104D4A004FF0024F0C90DF3BE0FFBF1302800302DB
:104D5A004F0C90FC8AE0E07003024E9D90FC2EE01E
:104D6A00FEA3E0FF0EBE00010F90FC2EEEF0EFA3B3
:104D7A00F090FC7EE0FEA3E0FF90FC82E0FCA3E062
:104D8A00FDEEB50406EFB505028003024E7090FCF5
:104D9A0080E0A3E090FC80E0F5F0A3E045F0603706
:104DAA0090FC80E0FEA3E0FFBEFF05BF0002801476
:104DBA0090FC80E024FFFEA3E034FFFF90FC80EE2D
:104DCA00F0EFA3F090FC86E0FEA3E0FF90FC7EEEFD
:104DDA00F0EFA3F0024E7090FC82E0F513A3E0F529
:104DEA001490FC7CE0FF7E008F828E831258C9AE3D
:104DFA0082AF8390FC18E0FCA3E0FDEE2CF582EF75
:104E0A003DF583E4F090FC7CE02401F0E0FF90FCA7
:104E1A007DE0FEEFB5060590FC7CE4F090FC82E0B4
:104E2A00F513A3E0F51490FC7CE0FF7E008F828EE0
:104E3A00831258C9AE82AF8390FC18E0FCA3E0FD50
:104E4A00EE2CFEEF3DFF8E828F83E0701090FC21E6
:104E5A00E4F090FC467412F01246B7C29190FC7EC0
:104E6A007401F0E4A3F090FC88E0FEA3E0FF90FC5C
:104E7A0088E024FFFCA3E034FFFD90FC88ECF0ED11
:104E8A00A3F0BEFF22BF001F90DF04E0FF74FC5FA7
:104E9A00F0801490FC88E024FFFEA3E034FFFF902A
:104EAA00FC88EEF0EFA3F090FC1C7403F090FC82F7
:104EBA00E0F513A3E0F51490FC7CE0FF7E008F82FE
:104ECA008E831258C9AE82AF8390FC7EE0FCA3E0C9
:104EDA00FD90FC7EE02401F0A3E03400F0EC2EFE0D
:104EEA00ED3FFF90FC18E0FCA3E0FDEE2CF582EF0D
:104EFA003DF583E0F5D990FC1AE02401F0A3E034F3
:104F0A0000F0D0D0D000D001D002D003D004D00518
:104F1A00D006D007D083D082D0F0D0E0D02132C0E2
:104F2A0021C0E0C0F0C082C083C007C006C005C06F
:104F3A0004C003C002C001C000C0D075D000751102
:104F4A000090FC457410F0AE9B74FC5EF59BE5E99D
:104F5A00420EE5E930E02090FC1DE0FDA3E08D065D
:104F6A007D00AB9C7C0090FC1FED4BF0EE4CA3F057
:104F7A00AEE974FE5EF5E9E5E95470700302513258
:104F8A0090FC1CE0FEBE030AAE0E748F5EF50E02A4
:104F9A00512B90F811E0FEB40100E4332416F58297
:104FAA00E434FCF583E0FEBE010280030250E29085
:104FBA00FC8BE0FE20E1030250BB90DF04E0FE53CD
:104FCA000603BE010375110190FC8BE0FE53060136
:104FDA00BE017090F811E025E0FDE42412FEED34E4
:104FEA00F8FDAB117C00EB2EFEEC3DFDE0F929FA51
:104FFA00E42412F9EA34F8FAEB29FBEC3AFCE075FE
:10500A00F002A42412F58274FC35F0F583E0F9A3CA
:10501A00E0FAA8117F00E9C398F9EA9FFA90FC8B9D
:10502A00E0FF5307F090FC61EBF0ECA3F090FC6317
:10503A00E9F0EAA3F090FC65EFF08E828D831255B9
:10504A0065806E90F811E025E0FEE42412FFEE344C
:10505A00F8FEAC117D00EC2FFFED3EFEE025E0FAF4
:10506A00E42412FBEA34F8FAEC2BFCED3AFDE07585
:10507A00F002A42412F58274FC35F0F583E0FAA359
:10508A00E0FBA8117900EAC398FAEB99FB90FC8B34
:10509A00E0F95301F090FC68ECF0EDA3F090FC6AA3
:1050AA00EAF0EBA3F090FC6CE9F08F828E83125544
:1050BA00AE90F811E0FF74016FF0E0FF75F002A402
:1050CA002412F58274FC35F0F583E4F0A3F090FC29
:1050DA0016F090FC17F0804790FC467412F0A291EB
:1050EA00B3920390FC8EE0FFA203E4335207EF244D
:1050FA00FF929190F811E075F002A42412F58274DF
:10510A00FC35F0F583E4F0A3F0A291B3920390FC8E
:10511A008EE0FFA203E433FE5207EF24FF9291C20E
:10512A0091AFE974CF5FF5E9E5E930E63B90FC46DB
:10513A007410F0A291B3920390FC8EE0FFA203E4F4
:10514A00335207EF24FF92911246B7A291B392030A
:10515A0090FC8EE0FFA203E433FE5207EF24FF9295
:10516A0091AFE974BF5FF5E9E5E930E73B90FC46AA
:10517A007411F0A291B3920390FC8EE0FFA203E4B3
:10518A00335207EF24FF92911246B7A291B39203CA
:10519A0090FC8EE0FFA203E433FE5207EF24FF9255
:1051AA0091AFE9747F5FF5E9D0D0D000D001D00289
:1051BA00D003D004D005D006D007D083D082D0F057
:1051CA00D0E0D02132AF83E58290FC43F0EFA3F028
:1051DA0090FC41E0FEA3E0FF90FC43E0FCA3E0FD6D
:1051EA0090FC3FE0FAA3E0FB8A008B011ABAFF01A8
:1051FA001BE8496024EE2AF8EF3BF9E82CF8E93D70
:10520A00F9EA2CF582EB3DF583C006C007E08882F7
:0A521A008983F0D007D00680CF2270
:105D5C000000000000000100000000000000000036
:075D6C000000000000000030
:10522400AE82AF831EBEFF011FC3E49E74808FF065
:1052340063F08095F050167C4C7D04EC24FFFAED6D
:1052440034FFFB8A048B05EA4B70F080D722AE82D0
:10525400E583CE25E0CE33FF1EBEFF011FC3E49ECF
:1052640074808FF063F08095F040ED22AE82AF83BE
:10527400D2919003E8C007C006125224C291900153
:10528400F4125224D006D0071512AD12ED20E754C3
:10529400EE30E024900019C007C006C00512522465
:1052A400D291900226125224C291900019125224D3
:1052B400D005D006D0078022900113C007C006C0D5
:1052C40005125224D291900032125224C2919001BC
:1052D40013125224D005D006D007EFC313CE13CE39
:1052E400FF1D80A8C2919003E8025224AFF0AE8360
:1052F400E58290FC4EF0EEA3F0EFA3F090FC4EE0BC
:10530400FDA3E0FEA3E0FF90FC4BE0FAA3E0FBA3C7
:10531400E0FCA813A914E8496050C000C0018D82C4
:105324008E838FF0125A45F98A828B838CF0125A3D
:1053340045F8E9C398F98915D001D0006010E51546
:10534400F5163395E0F517851682851783220DBD72
:1053540000010E90FC4EEDF0EEA3F0EFA3F00ABABC
:1053640000010B18B8FF011980AC90000022AFBEF9
:1053740074FB5FF5BEE5BE30E6FBAFC674B85FF5FF
:10538400C6E5C620E6FB43BE04E5BE30E6FB53C6D5
:10539400C743E40C43E401D2B92243FE0F43FF198F
:1053A400C292C293C2A0C2A4D2A3C29122C0E0C03E
:1053B40082C083C0D090FC47E02401F0A3E0340015
:1053C400F0A3E03400F0A3E03400F0D0D0D083D0D8
:0453D40082D0E03271
:015D7300012E
:1053D800124604AF8290FC55EFF08FF005F074018F
:1053E800800225E0D5F0FB90FC56F0EF75F008A49C
:1053F80024F9FE74F735F0FF90FC51EEF0EFA3F0BE
:105408008E828F83A3A374DFF08E828F83A3A3A3DE
:1054180074B1F08E828F83A3A3A3A3A37410F07436
:10542800062EF582E43FF583E054E0441DF074074E
:105438002EF582E43FF583E0543F4440F074072E94
:10544800F582E43FF583E054FC4401F0124604AFD2
:105458008290FC57EFF08FF005F07401800225E090
:10546800D5F0FB90FC58F0EF75F008A424F9FE7411
:10547800F735F0FF90FC53EEF0EFA3F08E828F83A8
:1054880074DFF08E828F83A374B2F08E828F83A331
:10549800A3A3A3A37410F074062EF582E43FF5834A
:1054A800E054E0441EF074072EF582E43FF583E0F3
:1054B80054CF4410F074072EF582E43FF583E0548E
:1054C800FC4401F043A91043B91022AF83E5829050
:1054D800FC5BF0EFA3F0E5B330E3FB90FC51E0FE9A
:1054E800A3E0FF90FC5BE0FCA3E0FD8C028D038B46
:1054F800028E828F83EAF090FC51E0FEA3E0FF8EDB
:10550800828F83A37D00ECF090FC56E042D690FC9D
:1055180059E0FF90FC5AE0FE4F4401F5B3E5B33083
:10552800E3FB22AF83E58290FC5FF0EFA3F090FCF1
:105538005FE0FEA3E0FF90FC5DE0FCA3E0FDEC541F
:105548000F60158C028D030CBC00010DEA2EF5824C
:10555800EB3FF583E4F080E68C828D8322AF83E510
:105568008290FC66F0EFA3F090FC66E0FEA3E0FFFB
:1055780090FC61E0FCA3E0FD90FC63E0FAA3E0FB93
:1055880090FC65E0F990FC6FECF0EDA3F090FC71F5
:10559800EAF0EBA3F090FC73E4F090FC74E9F08E71
:1055A800828F830255F8AF83E58290FC6DF0EFA3FC
:1055B800F090FC6DE0FEA3E0FF90FC68E0FCA3E047
:1055C800FD90FC6AE0FAA3E0FB90FC6CE0F990FC2B
:1055D8006FECF0EDA3F090FC71EAF0EBA3F090FC17
:1055E800737402F090FC74E9F08E828F830255F890
:1055F800AF83E58290FC75F0EFA3F0E5B330E3FBF1
:1056080090FC75E0FEA3E0FF90FC6FE0F519A3E0C5
:10561800F51A90FC74E0FB74505BF51890FC73E08D
:10562800F94B4401FB740149F51790FC71E0F5133F
:10563800A3E0F514E4F515F516C3E5159513E5167D
:105648009514400122C00390FC51E0F8A3E0FBE56B
:10565800152EF9E5163FFA89048A058D0488828B90
:1056680083ECF090FC51E0FCA3E0FD8C828D83A3D9
:10567800E9F090FC53E0FCA3E0FD8C828D83A3A3AA
:10568800E5152519FCE516351AFD8C028D038B02EC
:10569800EAF090FC53E0FAA3E0FB8A828B83A3A391
:1056A800A3ECF090FC58E0FD90FC56E0FC4D42D68F
:1056B800D003E5186017E51324F0FCE51434FFFD6A
:1056C800ECB51509EDB516058517B380028BB3E562
:1056D800B330E3FB74102515F515E43516F51602FD
:1056E800564112578DBC0003025954EF60FA30D569
:1056F80002B2D1E583B4FF0302596AE582B4FF031D
:1057080002596A258340072482400B025954248396
:1057180014500302596AF582EA8DF0A4A8F0EA8EC3
:10572800F0A428F8E435F0F9EB8DF0A428E935F079
:10573800F9E433CA8FF0A429F9EA35F0FAEBF88EC8
:10574800F0A429F9EA35F0FAE433FBEC8DF0A4294A
:10575800F9EA35F0FAE43BFBE88FF0A42AFAEB35D6
:10576800F0FBE433CCFD8EF0A42AFAEB35F0FBE431
:105778003CFCED8FF0A42BFBEC35F0FC20E703128A
:1057880057BB025933AA82AB83A2F73392D1F58271
:105798006002D2F7ACF0E58124F9F8E6FD08E6FEF0
:1057A8000886F008E6A2F73392D5F5836002D2F7AF
:0357B800AFF0222D
:0614BA00E478FFF6D8FD06
:1057BB007804EC7011E58224F8500AF582E4C9CA2A
:1057CB00CBFCD8EF22EC7820058220E713D58201A1
:1057DB0022C3E933F9EA33FAEB33FBEC33FCD8EAB7
:1057EB00158222AC82AD83AE14AF15BE0004EF6000
:1057FB000C1F0FE5131258AEA3DEFADFF88C828D67
:10580B008322AD82AE83AFF08D188E198F1A85135C
:10581B001B85141C85151DA816A917880389041848
:10582B00B8FF0119EB4C6025851B82851C83851DF8
:10583B00F0125A45FCA385821B85831C8D828E83B7
:10584B008FF0EC1258AEA3AD82AE8380CE8518825A
:07585B00851983851AF02274
:101498007918E94400601B7A01905D5C7877759350
:1014A800FCE493F2A308B800020593D9F4DAF275C4
:0214B80093FFA0
:10586200FCABF0AA83A982749EC2D1F5821257BB07
:105872000259337F9E12589C30D103025954C3EF10
:105882009582500974FFF5F0F583F58222790012B2
:105892005A6189828A838BF0EC22AA82AB83A2F7B7
:1058A2003392D1F5826002D2F7ACF02220F71130A8
:1058B200F6138883A88220F509F6A883758300224F
:1058C20080FEF280F5F022E5828513F0A4C582C045
:1058D200F08514F0A4D0F025F0C5838513F0A4253B
:1058E20083F58322E513451460467A01E51325E02A
:1058F200F513E514334012F514E5829513E583950B
:105902001440030A80E6C3E51413F514E51313F5F6
:1059120013C3E5829513F5F0E58395144005F583ED
:1059220085F082C3E51413F514E51313F513DAE1D8
:015932002252
:1014C0007800E84400600A79007593F0E4F309D8E5
:1014D000FC7877E8440C600C790D90F000E4F0A300
:0414E000D8FCD9FA61
:02148900E4730A
:10593300B98003EA13B34010EA2401FAE43BFBE421
:105943003CFC50047C800582BC000EBB000BBA00FB
:1059530008E4F5F0F583F58222A2D1E582138CF0F9
:1059630092F78B838A8222E4F583F58275F080F4C3
:10597300A2D11322E4F583F58275F0C0747F22125D
:10598300578D30D502B2D1BF0009BC00030259774D
:1059930002596ABC0003025954E583B4FF0BE58244
:1059A300B4FF03025977025954E582B4FF03025945
:1059B3006AC395835007247F400B025954248014F3
:1059C300500302596AF582C3ED9AEE9BEF9C401196
:1059D3001582C3EA33F9EB33FAEC33FBE433FC808F
:1059E30005E4CCCBCAF9C08275F019C3E99DEA9EE0
:1059F300EB9FEC9400D5F002802D400EE99DF9EA6F
:105A03009EFAEB9FFBEC9400FCC3B3E833F8E5820A
:105A130033F582E58333F583C3E933F9EA33FAEBEC
:105A230033FBEC33FC80C4B3E4F938FAE43582FB8E
:105A3300E43583FCD082500405827C801257BB027C
:025A4300594BBD
:0D148B00758157125AA4E582600302148691
:105A450020F71430F6148883A88220F507E6A8838A
:105A550075830022E280F7E49322E0226040F82576
:105A650082500274FFF582E824F8501ECCCBCAF9A7
:105A7500E4CC24F85014CBCAF9E4CB24F8500BCA73
:105A8500F9E4CA24F8500379002224086010F8C309
:105A9500EC13FCEB13FBEA13FAE913F9D8F12275C1
:035AA5008200225A
:00000001FF
